:020000022000DC
:1060000000000120756302005D6302005F6302000F
:106010006163020063630200656302000000000028
:1060200000000000000000000000000067630200A4
:1060300069630200000000006B6302006D630200F0
:106040004DAF02006F63020039B502006F630200BA
:106050004DA802006F63020059B202006F63020094
:106060006F6302006F6302006F6302006F630200E0
:106070006F6302006F6302006F6302006F630200D0
:106080006F630200CD7F02006F6302006F63020046
:106090000D8002006F630200BDEC02006F6302001E
:1060A0006F6302006F6302006F6302006F630200A0
:1060B0006F6302006F630200000000000000000038
:1060C0006F6302006F6302006F6302006F63020080
:1060D0006F6302006F6302006F6302000000000044
:1060E00000000000000000000000000000000000B0
:1060F00000000000000000000000000000000000A0
:10610000000000000000000000000000000000008F
:10611000000000000000000000000000000000007F
:10612000000000000000000000000000000000006F
:10613000000000000000000000000000000000005F
:10614000000000000000000000000000000000004F
:10615000000000000000000000000000000000003F
:10616000000000000000000000000000000000002F
:10617000000000000000000000000000000000001F
:10618000000000000000000000000000000000000F
:1061900000000000000000000000000000000000FF
:1061A00000000000000000000000000000000000EF
:1061B00000000000000000000000000000000000DF
:1061C00000000000000000000000000000000000CF
:1061D00000000000000000000000000000000000BF
:1061E00000000000000000000000000000000000AF
:1061F000000000000000000000000000000000009F
:10620000354936480A1A02D0072291438D4634494F
:1062100034480A1A06D00722914381F309880222E2
:1062200082F3148830483149314A00F044F831484B
:106230003149324A00F03FF831483249324A00F0E1
:106240003AF832483249334A00F035F83248334997
:10625000334A00F030F833483349344A00F02BF821
:1062600033483449344A00F026F83448344900228F
:1062700000F02CF833483449002200F027F8334866
:106280003349091A082902DB002202604160314AC1
:1062900090471F481F49884205D00268043003B464
:1062A000904703BCF7E700208646EC46002000211B
:1062B000294A9047FEE7884207D0521A05D0037852
:1062C00001300B700131013AF9D17047884202D098
:1062D00002700130FAE770470000012000E0002062
:1062E0000000012000000120882B0300A8180020D6
:1062F00044190020D4630200D4630200B0110300EB
:10630000882B0300A8180020A818002054120300AE
:1063100054120300541203005412030054120300D9
:10632000541203005412030054120300882B03007C
:10633000242C030044190020441900204419002093
:106340000029002000290020082900200829002019
:10635000084900209D6302002DD30200FEE7FEE7FE
:10636000FEE7FEE7FEE7FEE7FEE7FEE7FEE7FEE705
:10637000704700BF1048804710484FF0070188431E
:1063800085460F4880470F48016841F4700101605D
:10639000BFF34F8FBFF36F8FFFF732BF0A480B4930
:1063A0000B4A884207D0521A05D0037801300B708F
:1063B0000131013AF9D170477163020000000120F8
:1063C000E196020088ED00E054120300A8180020B6
:0463D000A8180020E9
:1063D40000487047F828002000B585B00190019B63
:1063E400002B0AD0074B43F001030393019B9B014D
:1063F4000293039B0298984700E000BF05B05DF844
:1064040004FB00BF6012030000B583B00190019B40
:10641400002B0AD04FF47A70FFF7DEFF019B013B9B
:106424000193019B002BF5D100E000BF03B05DF8A0
:1064340004FB08B508F0FAFB00BF08BD00B589B03D
:10644400039002910192019B002B33D00023079308
:1064540003230693029A079B1344019A19460020CA
:1064640008F094FB0590079A059B13440793019A3F
:10647400059BD31A0193059B002B13D10F4B1B785B
:1064840083F00103DBB2002B13D10120FFF7BCFF23
:10649400069B013B0693069B002B03D1074B00226E
:1064A4001A7007E0054B01221A70019B002BD1D111
:1064B40000E000BF00BF09B05DF804FB44190020F0
:1064C40000B585B003900291054B00934023054A23
:1064D4000299039800F012F800BF05B05DF804FBC0
:1064E400416402004819002082B0019000BF02B04C
:1064F400704782B0019000BF02B0704700B5A1B0F0
:106504000590049103920293049802F04BFC039BC0
:106514001593029B16930023179300238DF8603084
:1065240000231993229B1A9300231F930FA91F9BE7
:106534000822049802F010FD08231F93119B129364
:10654400BDF84030ADF84C30BDF84230ADF84E30B7
:1065540000238DF851309DF83C3003F00303DBB287
:10656400012B26D10F9BC3F395231C939DF83C303C
:10657400C3F3C203DBB28DF85030BDF83C30C3F333
:106584008313DBB21B931B9B9A0009A91F9B0498DE
:1065940002F0E2FC1B9B9B001F9A13441F9312AA58
:1065A40009A915AB009313461B9A1C9800F0D6FE5C
:1065B4002FE09DF83C3003F00303DBB2022B28D11B
:1065C400BDF83E30C3F389139BB21E939DF83C3053
:1065D400C3F3C203DBB28DF850301E9B082B28BFD7
:1065E40008231D9307A91F9B1D9A049802F0B4FC6D
:1065F4001F9A1D9B13441F931E9A1D9BD31A1E930F
:1066040015AB12AA07A81D9900F04AFF1E9B002B88
:10661400E3D1049802F0D5FB00BF21B05DF804FB80
:1066240082B00190019BDB6801225A7100BF02B065
:106634007047000000B583B04FF0FF330193FFF7BC
:10664400F8FE0421084800F0A3FD0190019B002BF3
:1066540003DA0649412006F03DFF0348FFF7E0FF57
:1066640000BF03B05DF804FB44120300781203007A
:1066740000B583B001900091019B1B681B680099D1
:106684000198984700BF03B05DF804FB00B583B0E0
:106694000190019B1B685B680198984700BF03B099
:1066A4005DF804FB00B583B00190019B1B689B68F7
:1066B4000198984700BF03B05DF804FB82B00190D5
:1066C4000B468DF80330019BDB689DF803201A719B
:1066D40000BF02B0704782B00190019BDB681B7958
:1066E400184602B0704782B00190019BDB6801221A
:1066F4005A7100BF02B0704782B00190019BDB6801
:106704005B79184602B0704700B585B001900091DE
:10671400154BFF229A60144B00221A60124B002280
:106724005A60114B0022C3F818240F4B0022C3F8FF
:1067340014240D4B002283F820240C4802F096FA0E
:106744000390039B002B01D0039B08E0084802F050
:1067540023FC084A084BD31ADB080293002318468B
:1067640005B05DF804FB00BFF01A0020D01103004F
:10677400C412030044120300E4110300024A034B51
:10678400D31ADB081846704744120300E4110300CF
:1067940000B587B001900B468DF803309DF80330A7
:1067A400002B1FD0FFF7EAFF04900023059313E0AA
:1067B400059B9B000E4A13440393039B1B881A46B4
:1067C400019B1B689A4204D1019B059A1A6000231D
:1067D40009E0059B01330593059A049B9A42E7D38C
:1067E400052300E00023184607B05DF804FB00BF52
:1067F400A818002000B585B001900B468DF8033031
:106804009DF8032001AB11461846FFF7C1FF03466C
:10681400002B07D1019BDB00054A13440393039B20
:106824001B6800E00023184605B05DF804FB00BFB8
:10683400E411030084B001900B468DF80330019BF2
:10684400DB00174A134402939DF80330013B032BEA
:106854001CD801A252F823F06D680200756802008A
:106864007D6802008768020002238DF80F3011E072
:1068740004238DF80F300DE0029B1B798DF80F3047
:1068840008E0029B5B798DF80F3003E000238DF85C
:106894000F3000BF9DF80F30184604B0704700BF9A
:1068A400E411030084B00190009100238DF80F30AF
:1068B400019B1B7803F00403DBB2002B24D0019B63
:1068C4001B78C3F30103DBB2012B02D0022B0CD0E3
:1068D40017E0009B1B68019A1288C2F38312D2B29C
:1068E40013449A1C009B1A600BE0009B1B68019ADE
:1068F4005288C2F3891292B213449A1C009B1A6004
:1069040000BF01238DF80F309DF80F30184604B0F6
:106914007047000000B58BB00023ADF826303E4828
:1069240001F0B0FC3D4801F0ADFC3D4B5B680493C5
:106934003B4B9B680693049A069B134002339B00CF
:10694400374A13440433089304AB19460898FFF7F5
:10695400A9FF0346002B09D0049A069B1340023377
:106964009B002F4A134404330893EDE700BF002330
:10697400079311E0049B5A1C0492069A1340079A49
:10698400920001A90A44264902339B000B445B6828
:106994001360079B01330793079B012BEAD99DF8EA
:1069A4000430C3F30103DBB2012B10D0022B1CD142
:1069B400BDF80A30ADF82630BDF80630C3F38913AC
:1069C4009BB203339A08049B1344049313E0BDF869
:1069D4000A30ADF82630BDF80430C3F38313DBB2BC
:1069E4001A46049B1344049305E00E494FF4BF7008
:1069F40006F070FD00BF094801F050FC0590059BAE
:106A0400002B02D0049B064A5360BDF8263018467A
:106A14000BB05DF804FB00BF081F0020041F00201A
:106A2400F01A0020D412030000B585B000210748F5
:106A340001F0B1FB0390039B0293029B83F31003C9
:106A44000193019B184605B05DF804FB0C1F002060
:106A540000B589B00390029101920093039B1B0C33
:106A64000793FFF7E1FF0690FFF788FE0246079BB6
:106A7400934204D3214940F2A31006F02BFD069B58
:106A84001904009B5A1C0A9B1340079A0A431C4989
:106A940002339B000B445A60009A0A9B1340023352
:106AA4009B00174A134404330593039B03F0070325
:106AB400D9B2059A137861F3C5031370019B03F0EF
:106AC4000F03D9B2059A138861F389131380029BCB
:106AD400C3F31501059A136861F39F231360059AA4
:106AE4001378012161F301031370059A13786FF38E
:106AF4008203137000BF09B05DF804FBD4120300D5
:106B0400F01A002000B58DB00390029113468DF861
:106B14000730039B02330A9301238DF827300023A7
:106B24008DF81B300DF11B03184601F0E7FA404BBA
:106B34001A68029B1A603E4B9A683D4B59683C4B5D
:106B44001B68CB1A134401330B9314E00121394819
:106B540001F068FBFFF7DEFE07900799354801F066
:106B640061FB334B9A68324B5968314B1B68CB1A23
:106B7400134401330B930A9A0B9B9A42E6D89DF86F
:106B84002730002B48D0002305939DF80730002BB5
:106B940017D09DF81430012262F301038DF81430EC
:106BA4009DF8143043F004038DF81430039B03F074
:106BB4000F03DAB2BDF8143062F38913ADF8143060
:106BC40016E09DF81430022262F301038DF81430AC
:106BD4009DF8143043F004038DF81430039BC3F381
:106BE40009039AB2BDF8163062F38F13ADF816306C
:106BF4000F4B1A680E4B9B68134002339B000C4AE0
:106C0400134404330893059A089B1A60084B1A68C6
:106C14000A9B1344064A13609DF81B30184601F082
:106C240083FA9DF8273018460DB05DF804FB00BFC9
:106C3400F01A00200C1F002000B58BB005900491C1
:106C4400039202931F4B9B68079306AB01221946DC
:106C54000298FFF757FF0346002B24D0069B02330C
:106C640009930023089311E0089B9B00039A1A449C
:106C7400099B591C099107990B4012681149023369
:106C84009B000B445A60089B01330893089A029BAB
:106C94009A42E9D3069A079B00931346029A0499F1
:106CA4000598FFF7D5FE074B93F82034002B05D049
:106CB40000BF00F065F80346002BFAD100BF0BB00B
:106CC4005DF804FBF01A002000B583B00190009138
:106CD4000023002200990198FFF7AEFF00BF03B024
:106CE4005DF804FB00B587B0039002910192019B0B
:106CF400059305AA012302990398FFF79DFF00BF9E
:106D040007B05DF804FB00B587B0039002910192CF
:106D14000093019B0493009B059304AA0223029908
:106D24000398FFF789FF00BF07B05DF804FB00B5C7
:106D34008BB00390029101920093019B0593009BF9
:106D440006930C9B07930D9B08930E9B099305AA2E
:106D5400052302990398FFF76FFF00BF0BB05DF89E
:106D640004FB0000054B5A68044B1B689A420CBF95
:106D740001230023DBB21846704700BFF01A00203D
:106D840000B599B0FFF7EEFF0346002B01D00023B6
:106D9400BEE19B4B0022C3F81824BFF34F8F00BF02
:106DA400974B5B680493964B9B681093049A109BD3
:106DB400134002339B00924A13440433119300237B
:106DC40017930023169300230F9304AB19461198CD
:106DD400FFF768FD0346002B19D0894BD3F818340C
:106DE400002B14D1864B1A68049B9A4205D8844B15
:106DF4001B68834A536000238AE1049A109B134062
:106E040002339B007E4A134404331193DDE70023CD
:106E1400159311E0049B5A1C0492109A1340159A7E
:106E2400920001A90A44764902339B000B445B6833
:106E34001360159B01331593159B012BEAD99DF81B
:106E4400043003F00303DBB2022B40F09C80BDF856
:106E54000630C3F389139BB20D93BDF80630C3F318
:106E640089139BB2502B28BF50239BB20C930C9BCD
:106E7400C3F309039AB2BDF8063062F38F13ADF879
:106E840006300C9B08330B939DF80430C3F3C20304
:106E9400DBB20F930B995B4801F0F3FE1790179B3D
:106EA400002B00F0D180179801F07CFF01A9169BFC
:106EB4000822179802F032F8169B08331693049BA5
:106EC400DA43109B134001339B000A930C9A0A9BEC
:106ED4009A4242D90A9B002B08D0049A109B134073
:106EE40002339B00464A1344043300E0464B0893A4
:106EF4000A9B002B02D00A9BDBB201E00C9BDBB2A5
:106F04008DF81F300A9B002B01D03F4B00E000237B
:106F140006930A9B002B06D00C9BDAB20A9BDBB2C9
:106F2400D31ADBB200E000238DF817309DF81F2040
:106F3400169B0899179801F0F1FF9DF81F30169AD7
:106F440013441693069B002B16D09DF81720169B0E
:106F54000699179801F0E2FF0EE0049A109B134083
:106F640002339B00264A134404330993169B0C9A5C
:106F74000999179801F0D2FF0D9B03339A08049BDB
:106F84001344049360E09DF8043003F00303DBB280
:106F9400012B59D1BDF80430C3F38313DBB2062BA4
:106FA40028BF0623DAB2BDF8043062F38913ADF8C2
:106FB4000430BDF80430C3F38313DBB202330E9301
:106FC4009DF80430C3F3C203DBB20F930E9B9B0006
:106FD40019460C4801F055FE1790179B002B33D02F
:106FE400179801F0DFFE01A9169B0822179801F0FB
:106FF40095FF169B08331693002315931BE000BFDF
:10700400F01A0020D0110300FC1A0020049B5A1C23
:107014000492109A134002339B003F4A1344191DF3
:10702400169B0422179801F079FF169B04331693DC
:10703400159B01331593BDF80430C3F38313DBB2FE
:107044001A46159B9342E1D3179B002B40D0324B39
:10705400D3F810341493304BD3F81834002B1BD0CE
:10706400179801F0AEFE4DE000238DF84F301498D0
:10707400FFF742FB0346002B02D001238DF84F306B
:107084009DF84F30002B03D017991498FFF7F0FAAE
:10709400149BDB681B681493149B002BE4D1179892
:1070A40001F08FFE00238DF803300DF10303184621
:1070B40001F024F8184BD3F81834002B02D1049BA8
:1070C400154A53609DF80330184601F02DF819E075
:1070D400114BD3F81034129306E01298FFF7E2FA3A
:1070E400129BDB681B681293129B002BF5D10B4A91
:1070F4000B4BD31ADB081B0443F00203094918465F
:10710400FFF7E2FDFFF72EFE034683F00103DBB237
:10711400184619B05DF804FBF01A0020141203009D
:10712400E41103001813030000B585B00023039392
:1071340023E0164BD3F81034029301238DF8073063
:107144000FE00298FFF7C7FA03461A46039B9342DF
:1071540003D100238DF8073006E0029BDB681B682F
:107164000293029B002BECD19DF80730002B01D039
:10717400039B07E0039B01330393039B092BD8DD97
:107184004FF0FF33184605B05DF804FBF01A0020F9
:1071940000B585B001900B468DF80330FFF7C4FFAE
:1071A4000390039BB3F1FF3F01D1039B22E0039BB8
:1071B400DBB219460198FFF781FA104BD3F810346B
:1071C400002B08D10D4A019BC2F81034019BDB68E7
:1071D40000221A600DE0094BD3F81034DA68019BE1
:1071E400DB6812681A60054BD3F81034DB68019A27
:1071F4001A60039B184605B05DF804FBF01A0020E2
:1072040000B583B00D4BD3F8103401930B4B01221E
:1072140083F8202409E00198FFF765FA0198FFF745
:1072240035FA019BDB681B680193019B002BF2D1AB
:1072340000BF00BF03B05DF804FB00BFF01A0020DC
:1072440082B00190009100BF02B0704710B584B0C5
:1072540003900291039BDB88002B0AD0039BDB88FD
:107264001A461F4B009313461E4A1F49029801F009
:1072740051F9039B1B7A052B2ED0039B5B7A002BC1
:1072840012D0039B9B881A46039B1B7A194610460F
:10729400FFF7D0FA03461A46144B53F822301A4625
:1072A4001349029801F036F9039B1B6819460298AA
:1072B400FFF7C6FF039B1B7A1A460E4B53F8224076
:1072C400039B9B8800211846FFF794FA0346224645
:1072D4000949029801F01EF900BF04B010BD00BFB7
:1072E4004C1303005C13030094130300C418002020
:1072F400AC130300B0180020B013030000B585B030
:107304000390029113468DF80730039B1B7A052BDB
:107314000FD0039B5B7A002B06D00D4B1B681A46DB
:107324000C49029801F0F6F80B49029801F0F2F8C2
:1073340007E09DF80730002B03D00749029801F0BD
:10734400E9F8029801F0C4F800BF05B05DF804FB49
:10735400C4180020AC130300BC13030030B58BB079
:1073640007900691059204930E9B1B7B8DF82730A2
:107374000E9B00221A730E990498FFF767FF059B72
:10738400062B7FD801A252F823F000BFAD73020090
:10739400B7730200C7730200DB730200F9730200C3
:1073A400217402005174020007990E9801F0B2F89A
:1073B40069E0069B1B681A4607990E9801F0AAF823
:1073C40061E0069B1A68069B04331B6807990E98B4
:1073D40001F0A0F857E0069B1A68069B043319686D
:1073E400069B08331B6800930B4607990E9801F01F
:1073F40091F848E0069B1968069B04331868069BBD
:1074040008331B68069A0C321268019200930346F3
:107414000A4607990E9801F07DF834E0069B186837
:10742400069B04331C68069B08331B68069A0C32BF
:10743400126806991031096802910192009323465B
:10744400024607990E9801F065F81CE0069B1C683B
:10745400069B04331D68069B08331B68069A0C328E
:107464001268069910310968069814300068039070
:107474000291019200932B46224607990E9801F03F
:1074840049F800E000BF00220E990498FFF736FF88
:107494000E9B9DF827201A7300BF0BB030BD00BFB0
:1074A40000B587B00390029101920093029B082BD0
:1074B40060D8009B1B7B8DF81330009B00221A734D
:1074C40000990198FFF7C2FE0023059314E0059A82
:1074D400029B9A4209D2039A059B13441B781A46CD
:1074E4002649009801F016F803E02549009801F0B8
:1074F40011F8059B01330593059B072BE7D9214917
:10750400009801F007F80023059326E0059A029BF2
:107514009A421BD2039A059B13441B788DF81230B0
:107524009DF812307E2B0AD89DF81230184608F0C8
:107534009DFB0346002B02D09DF8123000E02E2361
:107544001A461149009800F0E5FF03E00F4900983E
:1075540000F0E0FF059B01330593059B072BD5D96C
:10756400012200990198FFF7C9FE009B9DF81320A2
:107574001A7300E000BF07B05DF804FBC0130300FA
:10758400C8130300CC130300D0130300D413030067
:1075940086B003900291019201238DF817309DF873
:1075A4001730214A039B13601F4A029B53601E4AF3
:1075B400019B9360039B44F20102934213D0039B0B
:1075C40044F20202934221D1019B174AD360164B25
:1075D400DB681B881A46144B9A61134BDB685B68A3
:1075E400114AD36112E0019B0F4A13610E4B1B69D0
:1075F4009B680D4A53610C4B1B691B680A4A9361D3
:10760400094B1B695B68084AD36100BF72B600BFAF
:1076140000BF9DF81730DBB2002BFAD162B600BF71
:1076240000BF06B0704700BF141F002000B583B030
:1076340002900091019244F2010071466A4600F002
:1076440003F803B000BD00BF30B58BB007900691BE
:10765400059272B600BFFFF7D3FD00BFFFF790FBA2
:107664000346002BFAD1079B44F2020293422FD027
:10767400079B44F20202934269D8079B44F2010239
:10768400934237D0079B44F2010293425FD8079B91
:10769400012B05D0079B41F2010293420CD056E026
:1076A400394A3A4BD31ADB081B0443F00103384927
:1076B4001846FFF709FB57E0334A344BD31ADB086B
:1076C4001B0443F0010333491846FFF7FDFA4BE06E
:1076D400059B09932C4A2D4BD31ADB081B0443F05A
:1076E4000100099B5B681A46099B1B882A49FFF71E
:1076F4000AFB39E0059B0893234A244BD31ADB0881
:107704001B0443F00104089B9D68089B9B68184672
:1077140001F0BCFC03461846089B5B681946089BAD
:107724001B68069A02920193009103462A461B495C
:107734002046FFF7FCFA144A144BD31ADB081B0447
:1077440043F0010316491846FFF7BEFA0CE00E4A4F
:107754000E4BD31ADB081B0443F00103069A1149AC
:107764001846FFF7BFFA00BF0F4B1B6803F0010375
:10777400002B00D000BE059A06990798FFF708FF72
:1077840000BF0BB030BD00BF14120300E4110300AE
:10779400D8130300F81303001C1403003814030067
:1077A4006014030074140300F0ED00E082B003469B
:1077B4008DF807309DF8073003F01F0205499DF945
:1077C40007305B09012000FA02F241F8232000BFD0
:1077D40002B0704700E100E082B003468DF8073044
:1077E4009DF8073003F01F0206499DF907305B0935
:1077F400012000FA02F2203341F8232000BF02B036
:10780400704700BF00E100E082B003468DF8073006
:107814009DF8073003F01F0206499DF907305B0904
:10782400012000FA02F2403341F8232000BF02B0E5
:10783400704700BF00E100E082B003468DF80730D6
:107844009DF8073003F01F0206499DF907305B09D4
:10785400012000FA02F2603341F8232000BF02B095
:10786400704700BF00E100E000B585B00190019BC6
:10787400002B0AD0074B43F001030393019B9B01A8
:107884000293039B0298984700E000BF05B05DF89F
:1078940004FB00BF9014030008B50D4B4FF4803275
:1078A400C3F844230A4B4FF48032C3F80423112055
:1078B400FFF7C2FF1120FFF779FF054B01221A6081
:1078C4002F20FFF7D1FF034B01221A7000BF08BD20
:1078D400001001405220002008B51120FFF77CFF62
:1078E4000E4B4FF48032C3F848230C4B4FF48032D4
:1078F400C3F80823094B01225A602F20FFF7B4FF75
:10790400064B01229A60064B00221A602F20FFF7D3
:10791400ABFF044B00221A7000BF08BD00100140E9
:107924004420002052200020024BD3F8043518468E
:10793400704700BF0010014082B001900091019A8D
:10794400009BD31A23F07F43184602B0704700000F
:1079540082B00190034A019BC2F8403500BF02B0D7
:10796400704700BF0010014086B00190284B1B688F
:10797400002B03D1264A019B136045E0019B1A6842
:10798400234B1B681B689A4210D8214B1B6819684B
:10799400019B1A681E4B1B688A1A1A601C4B1A68D2
:1079A400019BDA611A4A019B13602DE0019B1B685D
:1079B4000393174B1B680593154B1B68049309E04D
:1079C400049B1B68039AD31A0393049B0593049B9B
:1079D400DB690493049B002B04D0049B1B68039A6B
:1079E4009A42EDD8049B002B05D0049B1A68039B94
:1079F400D21A049B1A60019B039A1A60019B049A91
:107A0400DA61059B019ADA6100BF06B0704700BFD6
:107A14004020002000B587B001902A4B1B680393D7
:107A2400284B1B680593059B049308E0049A019B6B
:107A34009A4208D0049B0593049BDB690493049B3E
:107A4400002BF3D100E000BF049B002B01D10023E5
:107A540033E0059A049B9A4214D11A4B1B68DB69E4
:107A6400184A1360174B1B68002B0BD1164B0122CD
:107A74009A60164B00221A60154B01221A702F20AF
:107A8400FFF7F2FE049B1B680293049BDA69059BD3
:107A9400DA61059BDB690493049B002B05D0049BEE
:107AA4001A68029B1A44049B1A60064B1B68039ACB
:107AB4009A4214BF01230023DBB2184607B05DF8D5
:107AC40004FB00BF4020002000100140442000209F
:107AD4005320002008B51120FFF796FE00BF08BD13
:107AE40008B51420FFF790FE00BF08BD00B583B0B1
:107AF4000190019B5B69019A92691046984700BF07
:107B040003B05DF804FB000000B585B02B4B1B6887
:107B1400002B4ED000230193FFF706FF0246284BAB
:107B24001B6819461046FFF707FF0290234B1B689A
:107B340003931DE0039B1B68029A9A421CD3039B88
:107B44001B68029AD31A0293039B1B68019A13447D
:107B54000193039B0093039BDB690393009B1B7CB2
:107B6400002B05D0009B00221A740098FFF7BEFF7B
:107B7400039B002BDED100E000BF124B1A78124B9E
:107B84001B789A420CD1104B1B780133DAB20E4B9E
:107B94001A700D4B1B78022B02D10B4B00221A706A
:107BA400094B1B781946094A019B42F82130FFF71B
:107BB40097FF00BF05B05DF804FB00BF4020002024
:107BC4004420002050200020512000204820002084
:107BD40082B00190184B1A78184B1B789A4223D024
:107BE400154B1B780133DAB2134B1A70124B1B7806
:107BF400022B02D1104B00221A700F4B1B781A462D
:107C04000F4B53F82220019B1A60019B1A680D4BFD
:107C14001B6813440B4A13600A4B1B6823F07F4311
:107C2400084A1360012303E0019B00221A60002329
:107C3400184602B0704700BF502000205120002099
:107C4400482000204420002088B003900291019233
:107C54000023079338E0204B1B680693069B1B68A0
:107C6400039A9A4206D2069B1A68039BD21A069B71
:107C74001A602EE0069B1B68039AD31A0393069B93
:107C84001B68079A13440793069B00221A60124B41
:107C94001B680593069BDB690F4A1360069BDB6830
:107CA400002B11D0029A079B134423F07F42069BBA
:107CB4005A60069BDA68069B9A60019B1A68069BC9
:107CC400DA61019B059A1A60034B1B68002BC2D131
:107CD40000BF00BF08B070474020002000B589B045
:107CE400019000238DF81F30664B1B680593AAE0B2
:107CF400019B002B05D0019B0693069BDB69019336
:107D040061E0614B1B781A4613465B001344DB00A9
:107D14005D4A1344043304935B4B1B780133DAB29A
:107D2400594B1A70584B1A78574B9B789A4202D188
:107D3400554B00221A70049B5B680693049B1B78C6
:107D4400032B1ED0032B7EDC012B1FD0022B7AD1F8
:107D5400049B5B681846FFF75DFE0346002B02D0C8
:107D640001238DF81F30069B00221A746BE0454BEB
:107D74001B680393039B00221A74039BDB69414A2B
:107D84001360404B1B68002BF1D15CE000BF069BE5
:107D94001B7C002B00D056E0049B9A68069B5A601B
:107DA400049BDA68069B9A60049B1A69069BDA6056
:107DB400049B5A69069B9A61344B1B78002B02D0B2
:107DC400069B00225A60069B5A68314B1B68D31AE3
:107DD40023F07F432F4A93420ED8069B5B682C4ABC
:107DE400126811461846FFF7A7FD0246069B9B68DA
:107DF4001A44069B1A6017E0254B1A68069B5B68B9
:107E040019461046FFF798FD0290069B9B68029A5C
:107E14009A4206D2069B9A68029BD21A069B1A6063
:107E240002E0069B00221A60069B00225A60069B11
:107E340000229A60069B01221A74069B0022DA61D2
:107E44000698FFF791FD019B002B7FF451AF0E4B79
:107E54001A780D4B5B789A427FF44AAF9DF81F3035
:107E6400002B04D1074B1B68059A9A4201D00123C9
:107E740000E0002303F00103DBB2184609B05DF80B
:107E840004FB00BF40200020341F002053200020AA
:107E940044200020FEFF7F0010B588B00190274BDE
:107EA4001B68002B44D0254B1B681B680793FFF706
:107EB4003BFD0690224B1B68059305990698FFF736
:107EC4003BFD0346033304931E4B1B7883F00103ED
:107ED400DBB2002B01D0FFF7DFFC049A079B93422F
:107EE40038BF1346059A13440593059B23F07F433B
:107EF40005930598FFF72CFDFFF716FD03900699EF
:107F04000398FFF719FD0346DC1C06990598FFF753
:107F140013FD03469C420DD9FFF706FD03461846A0
:107F2400FFF716FD2F20FFF79FFCFFF7D3FD01E0BD
:107F3400FFF7D2FC00BF08B010BD00BF40200020F6
:107F4400442000205220002000B587B00023019374
:107F540000238DF81730194B1B680493184B1B68CA
:107F640003936B461846FFF733FE03468DF80B3038
:107F74009DF80B30002B08D0009B01AA04991846E9
:107F8400FFF762FE01238DF81730019B1846FFF7B7
:107F9400A5FE0346002B02D001238DF817309DF86F
:107FA4001730002B02D00398FFF776FF054B002211
:107FB4001A7000BF07B05DF804FB00BF4420002026
:107FC400402000205320002008B50E4B0022C3F8A7
:107FD40040210C4B0022C3F844210A4B0022C3F871
:107FE4004821084B0022C3F84C21064B0022C3F859
:107FF4000021044B0022C3F80421FFF785FD00BFD4
:1080040008BD00BF0010014008B5FFF79DFF00BF89
:1080140008BD82B0EFF310830093009B019372B606
:1080240000BF019B184602B0704762B600BF00BF94
:108034007047000000B585B00190FFF7EAFF039098
:10804400164B9B68002B1BD1144B01229A60144BD6
:10805400D3F88020134B1340104A1360104B114A7D
:10806400C3F880200E4BD3F884300C4A53600C4B79
:108074004FF0FF32C3F88420019B00221A7002E003
:10808400019B01221A70039B002B01D1FFF7CDFF46
:108094000023184605B05DF804FB00BF54200020FF
:1080A40000E100E0FC06FFBD00B585B003468DF895
:1080B4000730104B9B68002B16D09DF80730002B1F
:1080C40012D1FFF7A6FF03900B4A0A4B1B681360FB
:1080D400094A084B5B685360064B00229A60039B75
:1080E400002B01D1FFF7A1FF0023184605B05DF86E
:1080F40004FB00BF5420002000E100E000B583B081
:10810400019000F02BF80346012B03D005494320CE
:1081140005F0E0F90198FFF78DFF00BF03B05DF8AB
:1081240004FB00BF9814030000B583B003468DF828
:10813400073000F013F80346012B03D00649512001
:1081440005F0C8F99DF807301846FFF7ADFF00BFEA
:1081540003B05DF804FB00BF9814030084B0EFF390
:1081640005830193019BC3F308030393039B002B33
:108174000DD1EFF314830093009B0293029B03F051
:108184000103002B0CBF01230023DBB200E0012319
:10819400184604B0704710B487B001900091019B59
:1081A400009A53E8004F104643E8000191F0000F95
:1081B400F7D1059404900391059B184607B05DF828
:1081C400044B704710B487B001900091019B009A52
:1081D40053E8004F44EA020043E8000191F0000F25
:1081E400F6D1059404900391049B184607B05DF8FA
:1081F400044B704710B487B001900091019B009A22
:1082040053E8004F04EA020043E8000191F0000F34
:10821400F6D1059404900391059B184607B05DF8C8
:10822400044B704710B487B001900091019B009AF1
:1082340053E8004F04EB020043E8000191F0000F03
:10824400F6D1059404900391049B184607B05DF899
:10825400044B704710B487B001900091019B009AC1
:1082640053E8004FA4EB020043E8000191F0000F33
:10827400F6D1059404900391049B184607B05DF869
:10828400044B704700B583B0019001210198FFF7BA
:1082940099FF0346184603B05DF804FB00B583B0AC
:1082A400019000210198FFF7A5FF0346184603B08B
:1082B4005DF804FB00B583B001900B468DF80330E4
:1082C400019B002B03D10849E82005F003F9019B29
:1082D400DA689DF803300199098A01FB03F313441A
:1082E400184603B05DF804FBDC14030000B583B04A
:1082F40001900091019B002B03D10849F52005F062
:10830400E9F8009B019AD2689B1A019A128AB3FB7E
:10831400F2F3DBB2184603B05DF804FBDC1403008F
:1083240000B585B00190019B002B01D10E234CE0D8
:10833400019B1B68002B03D12649FF2005F0CAF8D6
:10834400019B5B68002B04D122494FF4807005F037
:10835400C1F8019B9B68002B04D11E4940F2011017
:1083640005F0B8F8019BDB68002B04D119494FF4E0
:10837400817005F0AFF8019B1B8A002B04D11549CD
:1083840040F2031005F0A6F8019B9A68019B5B6814
:10839400D31A8DF80F30019B1B68019A52681A603A
:1083A40007E0019B1A681368591C11609DF80F209F
:1083B4001A709DF80F305A1E8DF80F20002BF0D143
:1083C400019B1B6800221A710023184605B05DF852
:1083D40004FB00BFDC14030000B585B00190019BD1
:1083E400002B04D11F494FF4927005F073F8002359
:1083F400039300238DF80A300DF10A031846FFF7A2
:108404007DFE019B1B681A68019B5B689A421FD919
:10841400019B1B681A68013A1A601B681B7819468D
:108424000198FFF747FF0390019B9A68019B1B6823
:108434001B68D31A8DF80B30019B1B681B799DF8C0
:108444000B209A4204D9019B1B689DF80B201A71DA
:108454009DF80A301846FFF767FE039B184605B0DF
:108464005DF804FBDC14030010B584B001900091A6
:10847400019B002B04D1154940F2471005F02AF85E
:10848400009B002B04D111494FF4A47005F022F88D
:10849400009B039300238DF80B300DF10B0318465A
:1084A400FFF72CFE019B1B681C68621C1A60039971
:1084B4000198FFF71BFF034623709DF80B30184605
:1084C400FFF732FE00BF04B010BD00BFDC14030090
:1084D40000B583B00190019B002B03D10C493120DE
:1084E40004F0F8FF019B9B68002B0CD0019B5B6997
:1084F400019A1069019A1168019A92689847019B40
:1085040000229A6000E000BF03B05DF804FB00BFE6
:108514001C1503000EB400B584B00190019B002B20
:1085240003D11849422004F0D5FF019B5B69002B5D
:1085340003D11449432004F0CDFF019B1B68002B99
:1085440003D11049442004F0C5FF019B5B68002B54
:1085540003D10C49452004F0BDFF059B002B0AD034
:108564000023039306AB039303AB1A4605990198C2
:1085740000F0B8F900E000BF04B05DF804EB03B00C
:10858400704700BF1C15030000B583B001900B4673
:108594008DF803309DF803300A2B03D10D21019887
:1085A400FFF7F2FF019B1A68019B9B68581C019915
:1085B400886013449DF803201A70019B9A68019BFC
:1085C4005B689A4202D30198FFF782FF00BF03B0B1
:1085D4005DF804FB00B587B003900291019200930B
:1085E40000230593009B03F00103002B24D00BE030
:1085F400029B01330293059B013305939DF81330CD
:1086040019460398FFF7C0FF029B1B788DF81330BF
:108614009DF81330002BEBD106E0019B013B019345
:1086240020210398FFF7B0FF019A059B9A422ED9A7
:10863400019B002BF1D12AE0029B002B0BD0029866
:1086440007F002FD059006E0019B013B0193202108
:108654000398FFF799FF019A059B9A420FD9019B52
:10866400002BF1D10BE0029B01330293059B0133F4
:1086740005939DF8133019460398FFF785FF029B75
:108684001B788DF813309DF81330002BEBD100BF0D
:1086940007B05DF804FB000000B589B003900291B7
:1086A40001920093029B07930123069307E0079A24
:1086B400019BB2FBF3F30793069B01330693079ADE
:1086C400019B9A42F3D2009A069B9A4201D9009BDD
:1086D40006930B9B03F00103002B22D10A9B002B72
:1086E4001FD00B9B03F00203002B06D0009B002B32
:1086F40003D130238DF8173002E020238DF8173092
:1087040008E00A9B013B0A939DF817301946039829
:10871400FFF73AFF0A9B002B03D0069A0A9B9A4262
:10872400EFD301230793009B012B03D9009B013B4B
:10873400009309E0029A079BB2FBF3F30493049AB3
:10874400019B9A4200D205E0079B019A02FB03F3C6
:108754000793E8E7029A079BB2FBF3F30493049BA5
:10876400079A02FB03F3029AD31A0293154A049B55
:1087740013441B7819460398FFF706FF079A019BD9
:10878400B2FBF3F30793079B002BE3D10B9B03F09E
:108794000103002B11D00A9B002B0ED006E00A9B8C
:1087A400013B0A9320210398FFF7EEFE0A9B002B5E
:1087B40003D0069A0A9B9A42F1D300BF09B05DF830
:1087C40004FB00BF8C15030000B589B0059004912B
:1087D40003920293049B002BB8BF5B4206930123D0
:1087E400079307E0039B069A92FBF3F30693079B18
:1087F40001330793039B069A9A42F3DA029A079B82
:108804009A4201D9029B07930A9B002B0AD0049B2E
:10881400002B04DB0B9B03F00403002B02D00A9B08
:10882400013B0A930B9B03F00203002B02D0029B33
:10883400002B16D00B9B03F00103002B11D10A9BD4
:10884400002B0ED006E00A9B013B0A9320210598D9
:10885400FFF79AFE0A9B002B03D0079A0A9B9A42C1
:10886400F1D3049B002B07DA049B5B4204932D2174
:108874000598FFF789FE08E00B9B03F00403002B27
:1088840003D02B210598FFF77FFE0B9B03F0020317
:10889400002B19D00B9B03F00103002B14D1029B76
:1088A400002B11D10A9B002B0ED006E00A9B013B42
:1088B4000A9330210598FFF767FE0A9B002B03D02B
:1088C400079A0A9B9A42F1D304990B9B01930A9B42
:1088D4000093029B039A0598FFF7DEFE00BF09B0E0
:1088E4005DF804FB00B58FB0059004910392059BDD
:1088F400002B04D1AD494FF4A27004F0EBFD059BAD
:108904005B69002B04D1A9494FF4A37004F0E2FD84
:10891400059B1B68002B04D1A44940F2471004F0C6
:10892400D9FD059B5B68002B04D1A0494FF4A470CA
:1089340004F0D0FD049B002B00F09381049B1B7872
:108944008DF83730049B013304939DF83730002BA6
:1089540000F07E819DF83730252B40F06D81002397
:108964000A9301230C93049B1B788DF837309DF8F0
:108974003730302B0DD0302B1BDC2B2B11D02D2B73
:1089840017D10A9B43F001030A93049B0133049318
:1089940012E00A9B43F002030A93049B01330493FD
:1089A4000AE00A9B43F004030A93049B01330493F3
:1089B40002E000230C9300BF0C9B002BD3D10023B7
:1089C40009939DF837302A2B0CD1039B1B68191D82
:1089D400039A11601B68099A13440993049B013399
:1089E40004931AE0049B1B788DF837309DF83730D8
:1089F4002F2B12D99DF83730392B0ED8049B013315
:108A04000493099A13469B0013445B001A469DF88D
:108A140037301344303B0993D3E700230B93049B73
:108A24001B788DF837309DF837302E2B1DD1049BE1
:108A340001330493049B1B788DF837309DF837304D
:108A44002F2B12D99DF83730392B0ED8049B0133C4
:108A540004930B9A13469B0013445B001A469DF83B
:108A640037301344303B0B93E4E7049B1B788DF8B9
:108A740037309DF837306C2B03D09DF83730682B96
:108A840007D1049B01330493049B1B788DF8373082
:108A9400EFE79DF83730252B00F0C480252BC0F27A
:108AA400C680782B00F3C380582BC0F2C080583B9B
:108AB400202B00F2BC8001A252F823F0B58B0200F7
:108AC400338C0200338C0200338C0200338C02009E
:108AD400338C0200338C0200338C0200338C02008E
:108AE400338C0200338C0200458B0200678B02003A
:108AF400338C0200338C0200338C0200338C02006E
:108B0400678B0200338C0200338C0200338C02002A
:108B1400338C0200338C0200338C0200F58B02008C
:108B2400338C0200338C0200D98B0200338C020098
:108B34008B8B0200338C0200338C0200B58B020055
:108B4400039B1B68191D039A11601B680C930C9BF3
:108B54008DF81F309DF81F3019460598FFF714FD56
:108B640066E0039B1B68191D039A11601B680C9334
:108B74000A9B0193099B00930B9B0A220C9905986D
:108B8400FFF722FE54E0039B1B68191D039A116032
:108B94001B680C930C990A9B0193099B00930B9BF4
:108BA4000A220598FFF778FD42E000BF5015030044
:108BB400039B1B68191D039A11601B680C930C9985
:108BC4000A9B0193099B00930B9B10220598FFF7C6
:108BD40063FD2DE0039B1B68191D039A11601B683C
:108BE40008930A9B099A08990598FFF7F3FC1FE07C
:108BF400039B1B68191D039A11601B680C93302199
:108C04000598FFF7C1FC78210598FFF7BDFC0C9986
:108C14000023019308230093082310220598FFF7EB
:108C24003BFD05E025210598FFF7AEFC00E000BF01
:108C3400049B0133049305E09DF8373019460598E9
:108C4400FFF7A2FC049B1B78002B7FF477AE00E0B7
:108C540000BF059B1B7B002B04D00598FFF738FC55
:108C640000E000BF0FB05DF804FB00BF00B583B0A7
:108C740001900198FFF754FB0346184603B05DF8D2
:108C840004FB00B58BB001900091019B1B8A043B4F
:108C94000793009A079B1344DA1C079BB2FBF3F378
:108CA4008DF81B300198FFF797FB0590059B002B6F
:108CB40001D1002338E0059B00221A71059B012293
:108CC4005A71079B9AB2059BDA80059B09939DF81C
:108CD4001B30013B0493099B019A1A6000230893FB
:108CE4001DE00198FFF778FB0390039B002B0ED047
:108CF400059B5B790133DAB2059B5A71099B039A90
:108D04001A60039B019A1A60039B099304E0059877
:108D140000F00EF8002307E0089B01330893089A3B
:108D2400049B9A42DDD3059B18460BB05DF804FB07
:108D340000B58BB00190019B0793079B5B798DF87D
:108D44001B30019B08939DF81B30013B05930023C6
:108D5400099305E0089B1B680893099B0133099359
:108D6400099A059B9A42F5D3089B1B680493019BBF
:108D74000893002309930BE0089B1B68039308994D
:108D84000498FFF771FB039B0893099B0133099334
:108D94009DF81B30099A9A42EED300BF00BF0BB076
:108DA4005DF804FB00B585B00190019B0393039B20
:108DB400043301211846FFF735FA00BF05B05DF80A
:108DC40004FB00B587B00190019B0593059B043318
:108DD40001211846FFF73EFA0346039303AB0493BD
:108DE400049B1B78002B02D10198FFF7A1FF00BF61
:108DF40007B05DF804FB000000B591B00390029148
:108E040001920093039B002B03D14349B62004F045
:108E140061FB039B0993039B0F93099BDB881A4611
:108E2400099B5B7902FB03F3043B0893009A089BBC
:108E34009A4203D33849C42004F04CFB099BDB88D5
:108E44000793009B1A1D079BB2FBF3F30E93009B41
:108E54000433079AB3FBF2F2079901FB02F29B1A5F
:108E64000D93019B1A68009B1344089A9A4203D2FB
:108E7400089A009BD31A01E0019B1B680C93019B89
:108E84000C9A1A6005E00F9B1B680F930E9B013B25
:108E94000E930E9B002BF6D100230B93079A0D9B88
:108EA400D31A0A930A9A0C9B934228BF13460A9337
:108EB4002AE0029A0B9B134406930F9A0D9B1344CA
:108EC400043305939DF84830002B05D00A9A059980
:108ED400069807F05DF804E00A9A0699059807F0E9
:108EE40057F800230D930F9B1B680F930C9A0A9B52
:108EF400D31A0C930B9A0A9B13440B93079A0C9B5B
:108F0400934228BF13460A930C9B002BD1D100BF78
:108F140000BF11B05DF804FB9C15030000B589B0D7
:108F24000590049103920293039B079307AA0023DD
:108F34000093029B04990598FFF75EFF079B039A31
:108F44009A4203D00349F62004F0C4FA00BF09B0E2
:108F54005DF804FB9C15030000B589B005900491ED
:108F640003920293039B079307AA01230093029B96
:108F740004990598FFF740FF079B039A9A4204D08F
:108F840004494FF4807004F0A5FA00BF09B05DF8FD
:108F940004FB00BF9C15030082B00190019B9B68F9
:108FA40000229A60019B9B6800221A61019B9B68C6
:108FB40000225A61019B9B680022DA60019B9B6836
:108FC40000225A60019B9B6800221A6000BF02B015
:108FD4007047000000B583B001900091019B002B05
:108FE40003D11049502004F075FA009B002B03D1E3
:108FF4000C49512004F06EFA019B009A1A60019BFF
:109004001B681A68019B5A60019B5A68019B1B6884
:109014005B689A4202D1019B00225A6000BF03B0F0
:109024005DF804FBB816030000B583B00190019B02
:10903400002B03D11449632004F04CFA019B1B68F4
:10904400002B03D11049642004F044FA019B5B68AF
:10905400002B14D0019B5B681A46019B1B689B681C
:1090640013441A46019B5A60019B5A68019B1B6872
:109074005B689A4204D1019B00225A6000E000BF61
:1090840003B05DF804FB00BFB816030000B585B05B
:109094000190019800F00EF80390039B002B01D07F
:1090A400039B00E0024B184605B05DF804FB00BFCB
:1090B4001017030086B00190164B0593164B0493CA
:1090C4001FE0049A059BD31ADB10DA0F13445B10DC
:1090D400DB00059A13440393039B1B680293029AD3
:1090E400019B9A4202D9039B04930AE0029A019BD2
:1090F4009A4203D2039B0833059302E0039B5B6807
:1091040004E0059A049B9A42DBD30023184606B078
:10911400704700BF101B0300381C030000B587B064
:109124000390029113468DF8073000230593039BA7
:109134001B781A46114B9B5C002B09D0039B04330C
:109144009DF807200299184603F0B2FB05900FE042
:10915400039B1B781A46094B9B5C002B08D1039B8D
:109164000C339DF807200299184602F07DFD059006
:10917400059B184607B05DF804FB00BFE4200020FF
:1091840000B585B0019000238DF80F30019B1B784A
:109194001A46114B9B5C002B08D0019B04331846E4
:1091A40003F030FC03468DF80F300EE0019B1B7872
:1091B4001A46094B9B5C002B07D1019B0C331846C4
:1091C40002F0DAFD03468DF80F309DF80F30184693
:1091D40005B05DF804FB00BFE420002000B587B0B3
:1091E4000390029113468DF8073000230593039BE7
:1091F4001B781A46114B9B5C002B09D0039B04334C
:109204009DF807200299184603F014FC05900FE01E
:10921400039B1B781A46094B9B5C002B08D1039BCC
:109224000C339DF807200299184602F0FDFD0590C5
:10923400059B184607B05DF804FB00BFE42000203E
:1092440084B00190019B9B680393019BDA68039BA4
:10925400D31A184604B0704700B587B00190009146
:10926400019B1B78022B3BD0022B60DC002B48D0E7
:10927400012B5CD1019B5B681B7819462E4800F0DA
:10928400DCF90590059B002B0AD001238DF80C30E6
:10929400059B0493294B1B6803AA104698470DE0CD
:1092A4002548FFF7CDFF0346002B07D000238DF898
:1092B4000C30224B1B6803AA104698471E48FFF740
:1092C400BFFF03461C4A9288934205D801221C49D9
:1092D4001C48FFF783FF2BE01B4B01221A7027E089
:1092E40002238DF80C30019BDB680493012214499E
:1092F4001448FFF773FF114B1B6803AA10469847E5
:1093040016E01249124800F0B3F90346002B05D1C8
:1093140001220E490B48FFF701FF09E003238DF8F2
:109324000C30064B1B6803AA1046984700E000BFA8
:1093340000BF07B05DF804FB6C2000206020002013
:1093440068200020E8180020692000206420002004
:109354007C20002030B591B00390029101928DF8E9
:1093640003303C4A019B1360029B002B01D107236D
:109374006DE0029B1968029B5B689BB21A463648F3
:1093840000F02FF90F900F9B0E930E9B002B01D032
:109394000E9B5CE0029B9968029BDB689BB21A46B9
:1093A4002E4800F01EF90F900F9B0D930D9B002B80
:1093B40001D00D9B4BE02A4B04AC1D460FCD0FC4CE
:1093C40095E80F0084E80F00039B5B690A93039BF5
:1093D4001B7C002B14BF01230023DBB28DF8243047
:1093E4009DF803308DF82C30039B5B7C002B01D05F
:1093F4000E2300E000238DF82530039BDB680693E1
:10940400039B9B680793039B1B680593039B5B6803
:10941400049304AB134A1946134801F0BBFB0F90A5
:109424000F9B0C930C9B002B01D00C9B0FE00F4B5C
:1094340000221A70039B1B68B3F1FF3F06D0012280
:109444000B490948FFF7CAFE034600E0002318460B
:1094540011B030BD602000206C2000207C20002052
:10946400381C03005D920200E818002069200020E7
:109474006820002000B587B00190019B002B03D128
:109484001449C22004F026F8134B1B788DF81730CA
:109494000199124800F0ECF804909DF81730002B65
:1094A40012D00D4B00221A7001220D490D48FFF70E
:1094B40095FE0390039B0293029B002B04D0054A64
:1094C400CE210298FEF7B2F8049B184607B05DF867
:1094D40004FB00BF581C0300692000206C200020FE
:1094E40068200020E818002000B585B003468DF8F8
:1094F40007309DF807301946104800F09EF8039095
:10950400039B002B15D10E48FFF73AFE034683F068
:109514000103DBB2002B0CD00A49084800F0A8F87C
:109524000346002B05D1012206490548FFF7F6FD45
:109534000390039B184605B05DF804FB7C200020D3
:10954400E81800206420002084B00190019B9B68EF
:109554000393019BDA68039BD31A184604B070473F
:1095640082B001900B468DF80330019B1A68019B71
:10957400DB68019989880B4013449DF803201A7015
:10958400019BDB685A1C019BDA6000BF02B0704784
:1095940084B003900B460192ADF80A30039B1A681D
:1095A400039B9968BDF80A300B44039989880B40E2
:1095B40013441A78019B1A7000BF04B0704700B5B9
:1095C40083B001900091009A00210198FFF7E0FF19
:1095D400019B9B685A1C019B9A6000BF03B05DF815
:1095E40004FB84B0039002911346ADF80630029B4D
:1095F400002B01D10E231DE0BDF80630002B07D04F
:10960400BDF806305A1EBDF806301340002B01D0B9
:1096140009230FE0039B029A1A60BDF80630013B50
:109624009AB2039B9A80039B00229A60039B0022B8
:10963400DA600023184604B0704700B583B0019087
:109644000B468DF803300198FFF77EFF0246019B1D
:109654009B889A4207D89DF8033019460198FFF772
:109664007FFF002300E00423184603B05DF804FBE9
:1096740000B583B0019000910198FFF765FF0346A0
:10968400002B05D000990198FFF799FF002300E013
:109694000523184603B05DF804FB0000BFF34F8FA9
:1096A40000BF074BDB6803F4E0620549054B134335
:1096B400CB60BFF34F8F00BF00BF00BFFCE700BF0C
:1096C40000ED00E00400FA05024B034A1A6000BFF3
:1096D400704700BFFC1800200090D00308B500F0CC
:1096E40069F90346002B06D0A04B1B681B0AA04A4D
:1096F40003F01F03136000F089F90346002B02D026
:109704009C4B9D4A1A6000F09DF90346002B06D03D
:109714009A4B1B685B0B9A4A03F00703136000F033
:10972400BDF90346002B05D0964BDB68954A23F020
:109734008073D36000F0CEF90346002B0ED04FF0B7
:1097440080430022C3F80C214FF080430022C3F869
:1097540010214FF080430022C3F8382500F0E6F9C9
:109764000346002B02D0884B03221A6000F0FAF95A
:109774000346002B0BD0854B05221A60844B012233
:109784001A60844B00221A60834B3F221A6000F057
:1097940005FA0346002B76D04FF080537F4AD3F866
:1097A4000434C2F820354FF080537C4AD3F808348F
:1097B400C2F824354FF08053784AD3F80C34C2F8F9
:1097C40028354FF08053754AD3F81034C2F82C353D
:1097D4004FF08053714AD3F81434C2F830354FF047
:1097E40080536E4AD3F81834C2F834354FF080539E
:1097F4006A4AD3F81C34C2F840354FF08053674AA4
:10980400D3F82034C2F844354FF08053634AD3F878
:109814002434C2F848354FF08053604AD3F82834D2
:10982400C2F84C354FF080535C4AD3F82C34C2F85C
:1098340050354FF08053594AD3F83034C2F8543578
:109844004FF08053554AD3F83434C2F860354FF0A2
:109854008053524AD3F83834C2F864354FF08053F9
:109864004E4AD3F83C34C2F868354FF080534B4A23
:10987400D3F84034C2F86C354FF08053474AD3F8DC
:109884004434C2F8703500F0A5F90346002B05D026
:10989400434B1B68434A03F04F03136000F0C6F9BF
:1098A4000346002B0DD04FF08043D3F8003403F06F
:1098B4000103002B05D04FF080436FF00102C3F881
:1098C400002400F0DFF90346002B05D0364B1B685B
:1098D400354A43F480631360344BD3F88830334AF9
:1098E40043F47003C2F88830BFF34F8F00BFBFF357
:1098F4006F8F00BF4FF01023D3F80032002B05DB2D
:109904004FF01023D3F80432002B2BDA284B01221A
:10991400C3F8042500BF264BD3F80034002BFAD03B
:109924004FF010231522C3F8002200BF204BD3F8B8
:109934000034002BFAD04FF010231522C3F8042270
:1099440000BF1B4BD3F80034002BFAD0184B002275
:10995400C3F8042500BF164BD3F80034002BFAD00B
:10996400FFF79CFEFFF7B0FE00BF08BD2403001004
:109974004035014074C007400DF0ADBA44020010F8
:109984003C050040F0ED00E0A0050040105600400A
:1099940088560040185600401456004000C000404D
:1099A40058020010E40E00403C17004000ED00E0B7
:1099B40000E00140124B1B68DBB2062B1DD1114B9A
:1099C4001B6803F00F03002B17D10F4B1B6803F028
:1099D400F003302B01D1012310E00B4B1B6803F083
:1099E400F003402B01D1012308E0074B1B6803F06F
:1099F400F003502B01D1012300E0002318467047E7
:109A0400E00F00F0E40F00F0E80F00F00A4B1B68D1
:109A1400DBB2062B0DD1094B1B6803F00F03002B9F
:109A240007D1074B1B6803F0F003302B01D101234E
:109A340000E0002318467047E00F00F0E40F00F048
:109A4400E80F00F0124B1B68DBB2062B1DD1114B43
:109A54001B6803F00F03002B17D10F4B1B6803F097
:109A6400F003302B01D1012310E00B4B1B6803F0F2
:109A7400F003402B01D1012308E0074B1B6803F0DE
:109A8400F003502B01D1012300E000231846704756
:109A9400E00F00F0E40F00F0E80F00F00A4B1B6841
:109AA400DBB2062B0DD1094B1B6803F00F03002B0F
:109AB40007D1074B1B6803F0F003302B01D10123BE
:109AC40000E0002318467047E00F00F0E40F00F0B8
:109AD400E80F00F0124B1B68DBB2062B1DD1114BB3
:109AE4001B6803F00F03002B17D10F4B1B6803F007
:109AF400F003302B01D1012310E00B4B1B6803F062
:109B0400F003402B01D1012308E0074B1B6803F04D
:109B1400F003502B01D1012300E0002318467047C5
:109B2400E00F00F0E40F00F0E80F00F00A4B1B68B0
:109B3400DBB2062B0DD1094B1B6803F00F03002B7E
:109B440007D1074B1B6803F0F003302B01D101232D
:109B540000E0002318467047E00F00F0E40F00F027
:109B6400E80F00F00A4B1B68DBB2062B0DD1094B42
:109B74001B6803F00F03002B07D1074B1B6803F08E
:109B8400F003302B01D1012300E000231846704775
:109B9400E00F00F0E40F00F0E80F00F00A4B1B6840
:109BA400DBB2062B0DD1094B1B6803F00F03002B0E
:109BB40007D1074B1B6803F0F003502B01D101239D
:109BC40000E0002318467047E00F00F0E40F00F0B7
:109BD400E80F00F0124B1B68DBB2062B1DD1114BB2
:109BE4001B6803F00F03002B17D10F4B1B6803F006
:109BF400F003302B01D1012310E00B4B1B6803F061
:109C0400F003402B01D1012308E0074B1B6803F04C
:109C1400F003502B01D1012300E0002318467047C4
:109C2400E00F00F0E40F00F0E80F00F0124B1B68A7
:109C3400DBB2062B1DD1114B1B6803F00F03002B65
:109C440017D10F4B1B6803F0F003302B01D1012314
:109C540010E00B4B1B6803F0F003402B01D10123F0
:109C640008E0074B1B6803F0F003502B01D10123DC
:109C740000E0002318467047E00F00F0E40F00F006
:109C8400E80F00F0064B1B68062B05D1054B1B683B
:109C9400062B01D1012300E000231846704700BFC2
:109CA400300100103401001000B589B0019000911A
:109CB400009B0793019B1B788DF80830019B5B6820
:109CC4000393019B9B68DBB28DF81030019BDB682A
:109CD4000593019B1B69DBB28DF81830074A079B7B
:109CE40052F823300649079A51F8221002AA104666
:109CF400984700BF09B05DF804FB00BF8C2000202A
:109D04009820002010B58AB003900291019200932C
:109D1400039B1B7809932249099B019A41F823204C
:109D24002049099B009A41F82320002308931E4BE5
:109D340004AC0FCB84E80F00029B1B788DF8103025
:109D4400029B5B788DF81130029B9B788DF8123062
:109D5400029BDB788DF81330029B1B798DF815304C
:109D6400029B5B798DF81630029B9B680693029BDD
:109D74001B7B8DF81C30029B5B7B8DF81D30039B95
:109D8400181D019B002B01D0084A00E00022099B0A
:109D940004A900F073FA0890089B18460AB010BD95
:109DA4008C20002098200020981C0300AD9C020009
:109DB40082B003468DF807309DF8073003F01F0288
:109DC40005499DF907305B09012000FA02F241F8C8
:109DD400232000BF02B0704700E100E082B00346D8
:109DE4008DF807309DF8073003F01F0206499DF9EE
:109DF40007305B09012000FA02F2203341F82320E6
:109E040000BF02B0704700BF00E100E082B003462B
:109E140000918DF807309DF90730002B0CDA009B78
:109E2400DAB20C499DF8073003F00F03043B5201EA
:109E3400D2B20B441A7609E0009BDAB206499DF9C6
:109E440007305201D2B20B4483F8002300BF02B0A2
:109E5400704700BF00ED00E000E100E082B0019037
:109E6400019B03F06043B3F1005F0CBF01230023A7
:109E7400DBB2184602B0704782B00190019B1B0B05
:109E84005BB2184602B0704700B583B003460A4679
:109E94008DF8073013468DF806309DF80630012BF7
:109EA40003D99DF80630032B0BD99DF80630042BFB
:109EB40003D99DF80630072B03D908496B2003F01A
:109EC40009FB9DF806209DF9073011461846FFF757
:109ED4009DFF00BF03B05DF804FB00BFA81C030096
:109EE40000B583B003468DF807309DF90730184656
:109EF400FFF75EFF00BF03B05DF804FB00B583B05D
:109F040003468DF807309DF907301846FFF766FFC2
:109F140000BF03B05DF804FB82B001900B468DF8DE
:109F240003309DF80330019A134401221A6000BFE4
:109F340002B0704784B001900B46ADF80230BDF812
:109F44000230019A134400221A60BDF80230019ACB
:109F540013441B680393039B00BF04B0704782B093
:109F640001900B46ADF80230BDF80230019A13445B
:109F74001B68002B14BF01230023DBB2184602B078
:109F8400704782B001900091019B009AC3F80423AA
:109F940000BF02B0704782B001900091019B009A0B
:109FA400C3F8082300BF02B0704782B00190019B40
:109FB4000722C3F8002500BF02B0704782B00190A9
:109FC400019B0022C3F8002500BF02B0704784B093
:109FD4000390029101920093039B029AC3F808250F
:109FE400039B019AC3F80C25039B009AC3F8102520
:109FF40000BF04B0704782B001900091009A019BA9
:10A00400C3F8242500BF02B0704784B003900291C6
:10A014000192029A039BC3F84425039B019AC3F857
:10A02400482500BF04B0704784B0039002910192A8
:10A03400029A039BC3F83425039B019AC3F838257D
:10A0440000BF04B0704784B001900B468DF8033014
:10A0540013468DF802309DF80230002B14BF012303
:10A064000023DBB203939DF80330032B10D0032BA2
:10A0740013DC012B02D0022B05D00EE0039B43F02E
:10A08400020303930AE0039B43F00403039305E0F4
:10A09400039B43F00603039300E000BF019B039A74
:10A0A400C3F8542500BF04B0704782B001900B463A
:10A0B4008DF803309DF80320019BC3F8C02500BF31
:10A0C40002B0704782B00190019B0122C3F8502571
:10A0D40000BF02B0704782B00190019B0022C3F818
:10A0E400502500BF02B0704782B00190019B01224D
:10A0F400C3F8402500BF02B0704782B00190019BB5
:10A104000022C3F8402500BF02B0704700B583B0F9
:10A114000190019B1B681F2B04D905494FF4F37070
:10A1240003F0D8F94FF0A043184603B05DF804FBE0
:10A13400D81C030000B585B00190084611461A46A4
:10A1440003468DF803300B468DF8023013468DF824
:10A15400013001AB1846FFF7D9FF03909DF80320A7
:10A164009DF802305B001A439DF801309B001A43AE
:10A174009DF818301B0242EA03019DF81C301B04B1
:10A18400019A1943039B02F5E07243F8221000BFC1
:10A1940005B05DF804FB00B585B00390002301937E
:10A1A400002300930023012201210398FFF7C2FF3B
:10A1B40000BF05B05DF804FB00B585B003900B4605
:10A1C4008DF80B309DF80B30002201920022009292
:10A1D400002200210398FFF7ADFF00BF05B05DF832
:10A1E40004FB00B585B00390002301930023009382
:10A1F4000023012200210398FFF79CFF00BF05B054
:10A204005DF804FB00B585B0019001AB1846FFF77B
:10A214007DFF0390019B012202FA03F31946039880
:10A2240000F018F800BF05B05DF804FB00B585B078
:10A23400019001AB1846FFF769FF0390019B0122CF
:10A2440002FA03F31946039800F00EF800BF05B0B4
:10A254005DF804FB82B001900091019B009AC3F861
:10A26400082500BF02B0704782B001900091019BA5
:10A27400009AC3F80C2500BF02B0704700B58DB03A
:10A284000590049103920293049B002B03D170491F
:10A29400AD2003F01FF9059B1B791A461346DB001A
:10A2A40013449B006B4A13440A930A9B1B7F002BA5
:10A2B40003D008230793079BC5E0059B1B680993FC
:10A2C400059B1A68059B1B791946634B53F821308B
:10A2D4001946104601F050F90346002B03D0112310
:10A2E4000793079BAFE00A9B039A1A600A9B029AA2
:10A2F4005A60049B1B7B012B05D8049B1B781846D2
:10A30400FFF794FF04E0049B1B781846FFF77AFFDD
:10A31400049B1B7818460023019300230093002319
:10A3240000220121FFF706FF049B5B78FF2B09D075
:10A33400049B5B780B930B98FFF778FF0B98FFF760
:10A344002AFF02E04FF0FF330B93049B9B78FF2B13
:10A3540007D0049B9B78089301210898FFF72CFFF2
:10A3640002E04FF0FF330893049B9A780A9B83F82A
:10A374002020049BDA780A9BDA77049BDB78FF2B96
:10A3840017D0049B1B79002B05D0049BDB7818465F
:10A39400FFF74CFF04E0049BDB781846FFF732FF1D
:10A3A400049BDB781846FFF7F6FE049B1A790A9B98
:10A3B4009A77049B1B781946089B0B9A0998FFF718
:10A3C40006FE049B9B6819460998FFF714FE049B3C
:10A3D400197B049B5B7B1A460998FFF734FE049BA8
:10A3E4009B7919460998FFF760FE0A9B1B68002BAE
:10A3F40003D040210998FFF7C4FD0998FFF7D5FD64
:10A404000A9B1B68002B15D0059B1B681846FFF799
:10A4140033FD03461A46049B5B7919461046FFF741
:10A4240033FD059B1B681846FFF726FD03461846B7
:10A43400FFF756FD0A9B00225A770A9B01221A77DE
:10A4440000230793079B18460DB05DF804FB00BF7B
:10A45400101D0300A42000204C1D030000B585B08E
:10A464000190019B1B791A461346DB0013449B00A1
:10A474002A4A13440393039B1B7F002B04D12849CE
:10A4840040F2611003F026F8039B1B68002B08D0F0
:10A49400019B1B681846FFF7EFFC03461846FFF7BD
:10A4A4002DFD019B1B680293039B1B68002B1BD093
:10A4B4001C490298FFF76FFD039B5B7FDBB2002B07
:10A4C40012D014210298FFF727FD00BF4FF48271C8
:10A4D4000298FFF744FD034683F00103DBB2002B2F
:10A4E400F4D1039B00225A77039B93F82030FF2B6F
:10A4F40005D0039B93F820301846FFF772FE0298AC
:10A50400FFF75CFD019B1B68184601F077F8039B7D
:10A5140000221A7700BF05B05DF804FBA4200020D8
:10A52400101D03005201080000B583B00190019B87
:10A53400DB7FFF2B0ED0019B9B7F002B05D0019B63
:10A54400DB7F1846FFF772FE04E0019BDB7F1846B1
:10A55400FFF758FE019B00225A77019B00221A72D2
:10A56400019B1B68019A02F10800019A5268114686
:10A57400984700BF03B05DF804FB00B583B00190B9
:10A584000B468DF803309DF8033083F00103DBB2F2
:10A59400002B04D040210198FFF7FDFC03E040218B
:10A5A4000198FFF7EEFC00BF03B05DF804FB00B5B3
:10A5B40083B001900091009B03F00103002B03D0B2
:10A5C4000198FFF77FFD02E00198FFF784FD009BEF
:10A5D40003F00203002B03D00198FFF785FD02E08E
:10A5E4000198FFF78AFD00BF03B05DF804FB00B5D6
:10A5F40087B00390029101920093019B1B68002B8A
:10A604000AD0019B1B681846FFF728FC034683F019
:10A614000103DBB2002B0ED1019B9B68002B11D0F0
:10A62400019B9B681846FFF719FC034683F001035E
:10A63400DBB2002B06D0029B00225A77102305932D
:10A64400059B54E0019B1968019B5B681A460398BB
:10A65400FFF7DBFC019B9968019BDB681A460398B2
:10A66400FFF7E2FC4FF48C710398FFF763FC009949
:10A674000398FFF79CFF009B03F00803002B03D112
:10A6840010210398FFF748FC029B1B68002B1FD185
:10A6940000BF4FF48C710398FFF761FC034683F00D
:10A6A4000103DBB2002BF4D1029BDB7FFF2B1BD019
:10A6B400029B9B7F002B05D0029BDB7F1846FFF794
:10A6C400B5FD11E0029BDB7F1846FFF79BFD0BE015
:10A6D400009B03F00403002B0CBF01230023DBB217
:10A6E40019460398FFF749FF00230593059B184675
:10A6F40007B05DF804FB000010B586B0039002912A
:10A704000192039B1B791A461346DB0013449B00FA
:10A71400394A13440593059B1B7F002B04D1374909
:10A7240040F2322002F0D6FE029B1B68002B08D1B7
:10A73400029B5B68002B04D0304940F2332002F0C6
:10A74400C9FE029B9B68002B08D1029BDB68002B8F
:10A7540004D02A494FF40D7002F0BCFE039B1B7910
:10A76400002B07D1029BDB68FF2B03D8029B5B689D
:10A77400FF2B04D9214940F2352002F0ABFE00231F
:10A784000493059B5B7FDBB2002B03D0112304935E
:10A79400049B2EE0059B1B68002B07D0019B03F054
:10A7A4001403002B02D1059B01225A77059B029AC0
:10A7B40003F10C0413460FCB84E80F00059BDB7FE9
:10A7C400FF2B0ED0059B9B7F002B05D0059BDB7FC9
:10A7D4001846FFF717FD04E0059BDB7F1846FFF7DB
:10A7E40025FD039B1868019B029A0599FFF7FFFE5C
:10A7F4000346184606B010BDA4200020101D030017
:10A8040000B583B0019000914FF48C710198FFF76B
:10A81400A6FB0346002B10D04FF48C710198FFF770
:10A8240089FB009B1B68002B04D106494FF4277059
:10A8340002F050FE0098FFF777FE00BF03B05DF80A
:10A8440004FB00BF101D030008B503494FF040206E
:10A85400FFF7D6FF00BF08BDA420002082B0034646
:10A864008DF807309DF8073003F01F0206499DF963
:10A8740007305B09012000FA02F2203341F823205B
:10A8840000BF02B0704700BF00E100E008B504F06B
:10A89400E5F9034683F00103DBB2002B03D105493C
:10A8A400792002F017FE00F035FB034B00229A706A
:10A8B40000BF08BD581D0300C820002000B583B0A8
:10A8C40000230193144B1B78002B02D085230193A2
:10A8D4001CE0114B00229A600F4B00225A600E4B71
:10A8E40000221A610C4B0022DA600C4800F0D8FAFE
:10A8F400019004F0B3F9034683F00103DBB2002BAB
:10A9040001D000F0F3FA044B01221A70019B18469F
:10A9140003B05DF804FB00BFC8200020F9A90200C1
:10A9240084B00190019B1B680393039B002B03D00D
:10A93400039B1A68019B1A60039B184604B0704776
:10A9440000B583B0164B1B78002B04D115494FF486
:10A95400857002F0BFFD124BDB68002B04D1114956
:10A9640040F20B1002F0B6FD00238DF807300DF114
:10A9740007031846FDF7C2FB094BDB68013B084A95
:10A98400D360074BDB68002B01D1FFF77FFF9DF8F5
:10A9940007301846FDF7C8FB00BF03B05DF804FBA1
:10A9A400C8200020581D030000B585B003468DF86B
:10A9B40007309DF80730002B02D10C4B039301E0C4
:10A9C4000B4B03930398FFF7ABFF0290029B002B02
:10A9D40006D0029B5B689DF8072010469847F1E774
:10A9E40000BF00BF05B05DF804FB00BFD02000200D
:10A9F400D820002000B583B003468DF807309DF8B9
:10AA04000730002B05D10A4B01225A700020FFF7B2
:10AA1400CBFF9DF80730012B05D1054B01229A701D
:10AA24000120FFF7C1FF00BF03B05DF804FB00BFC6
:10AA3400C820002000B583B001900091019B002B39
:10AA440005D1054B01225A700020FFF7ADFF00BF6E
:10AA540003B05DF804FB00BFC820002000B585B03A
:10AA6400034600918DF807309DF80730032B29D059
:10AA7400032B35DC002B02D0012B04D030E0002066
:10AA8400FFF7ECFE2DE000238DF80F300DF10F03DE
:10AA94001846FDF733FB154B1B7883F00103DBB23B
:10AAA400002B01D0FFF70AFF104BDB6801330F4A7C
:10AAB400D3600E4B01229A709DF80F301846FDF7B3
:10AAC40033FB0EE0094B1B78002B04D1084940F2FC
:10AAD400452002F0FFFC00F009FAFFF731FF00E027
:10AAE40000BF00BF05B05DF804FB00BFC820002014
:10AAF400581D030000B589B001900091009B079395
:10AB0400019B1B788DF80C30019B5B680493019BBF
:10AB14009B68DBB28DF81430019BDB680693074A0F
:10AB2400079B52F823300649079A51F8221003AACA
:10AB34001046984700BF09B05DF804FBDC200020F4
:10AB4400E020002000B589B001900091009B07939C
:10AB5400019B1B788DF80C30019B5B680493019B6F
:10AB64009B68DBB28DF81430019BDB680693074ABF
:10AB7400079B52F823300649079A51F8221003AA7A
:10AB84001046984700BF09B05DF804FBDC200020A4
:10AB9400E020002030B58FB0039002910192039B16
:10ABA4001B780C9326490C9B019A41F82320029BA5
:10ABB4001A6924490C9B41F82320029B5B7F1946A8
:10ABC400214A0C9B13440A461A70029B04AC1D468E
:10ABD4000FCD0FC495E80F0084E80F000C9B089379
:10ABE40000230D93039B1B781A46174B9B5C002B89
:10ABF4000DD0039B181D019B002B01D0134A00E0CC
:10AC0400002204AB194601F0EDFD0D9014E0039B06
:10AC14001B781A460C4B9B5C002B0DD1039B03F154
:10AC24000C00019B002B01D0094A00E0002204AB78
:10AC3400194600F067FF0D900D9B18460FB030BD0C
:10AC4400DC200020E0200020E4200020F9AA0200FB
:10AC540049AB020082B003468DF807309DF80730F7
:10AC640003F01F0205499DF907305B09012000FA32
:10AC740002F241F8232000BF02B0704700E100E077
:10AC840082B0034600918DF807309DF90730002B00
:10AC94000CDA009BDAB20C499DF8073003F00F037D
:10ACA400043B5201D2B20B441A7609E0009BDAB29B
:10ACB40006499DF907305201D2B20B4483F80023B0
:10ACC40000BF02B0704700BF00ED00E000E100E00B
:10ACD40082B00190019B1B0B5BB2184602B0704717
:10ACE40000B583B003460A468DF8073013468DF845
:10ACF40006309DF80630012B03D99DF80630032B4E
:10AD04000BD99DF80630042B03D99DF80630072B88
:10AD140003D908496B2002F0DDFB9DF806209DF95C
:10AD2400073011461846FFF7ABFF00BF03B05DF8CC
:10AD340004FB00BF941D030000B583B003468DF8E7
:10AD440007309DF907301846FFF784FF00BF03B0B2
:10AD54005DF804FB82B003468DF807300F4A9DF975
:10AD64000730002B00DA1F335B115BB252F823204B
:10AD74009DF90730594203F01F0301F01F0158BF2A
:10AD84004B425BB222FA03F303F00103002B14BF1E
:10AD940001230023DBB2184602B0704700E100E053
:10ADA40082B001904FF08042019BC2F8083300BF8B
:10ADB40002B0704782B003468DF807309DF8073023
:10ADC40003F1804301221A6000BF02B0704784B0CF
:10ADD4000346ADF80630BDF8063003F18043002287
:10ADE4001A60BDF8063003F180431B680393039B8C
:10ADF40000BF04B0704782B00346ADF80630BDF81A
:10AE0400063003F180431B68002B14BF0123002389
:10AE1400DBB2184602B0704782B001904FF0804216
:10AE2400019BC2F8183500BF02B070474FF0804351
:10AE3400D3F818341B0C03F00103002B14BF0123B7
:10AE44000023DBB21846704700B583B006238DF8A3
:10AE540007304FF08040FFF73BFF03461846FFF7EB
:10AE640079FF034683F00103DBB2002B13D04FF0CC
:10AE74008040FFF72DFF03461A469DF80730194618
:10AE84001046FFF72DFF4FF08040FFF721FF0346E8
:10AE94001846FFF751FF00BF03B05DF804FB000044
:10AEA40000B585B00190019B002B03D10D49A02072
:10AEB40002F010FB002303930B4B1B79002B02D0F1
:10AEC4008523039308E0084A019B1360064B012283
:10AED4001A71054B00225A71039B184605B05DF8A0
:10AEE40004FB00BFCC1D0300E820002008B5074B7D
:10AEF4001B79002B03D10649B92002F0EBFAFFF7C6
:10AF0400A3FF0120FFF788FF00BF08BDE820002051
:10AF1400CC1D030008B50A4B1B79002B03D109494A
:10AF2400F32002F0D7FA0C20FFF744FF00BFFFF72D
:10AF34007DFF0346002BFAD100BF00BF08BD00BF50
:10AF4400E8200020CC1D030008B54FF48070FFF703
:10AF540052FF0346002B14D04FF48070FFF737FFE5
:10AF64000120FFF71DFF114B5B7983F00103DBB276
:10AF7400002B06D00D4B01225A710C4B1B6800208C
:10AF840098474FF48270FFF736FF0346002B0AD030
:10AF94004FF48270FFF71BFF0220FFF701FF034B02
:10AFA4001B680120984700BF08BD00BFE8200020AF
:10AFB40000B583B00346ADF80630BDF80630184638
:10AFC40000F026F803461B68012B0CBF0123002365
:10AFD400DBB2184603B05DF804FB00B585B0034648
:10AFE400ADF80630BDF80630184600F011F80346F7
:10AFF4001A4600231360BDF80630184600F008F81E
:10B0040003461B680393039B00BF05B05DF804FB74
:10B0140082B00346ADF80630BDF8063003F1804334
:10B0240003F5C043184602B07047000082B0019097
:10B03400034BD3F80423019B1340184602B0704716
:10B044000060004082B00190054A019B03F5A273A1
:10B0540052F823301B0A03F01F03184602B070474E
:10B064000060004082B00190064A019B03F5A27380
:10B0740052F823301B0C03F00303DBB2184602B072
:10B08400704700BF0060004000B583B00190019B91
:10B094001B681F2B04D905494FF4F37002F01AFA08
:10B0A4004FF0A043184603B05DF804FB381E0300BC
:10B0B40000B585B001900B468DF8033001AB1846FE
:10B0C400FFF7E2FF0390019A039B02F5E07253F845
:10B0D4002230019A23F44031039B02F5E07243F8D5
:10B0E4002210019A039B02F5E07253F822309DF876
:10B0F400032012041146019A1943039B02F5E072DE
:10B1040043F8221000BF05B05DF804FB00B585B01C
:10B11400019001AB1846FFF7B7FF0390019A039B18
:10B1240002F5E07253F822301B0C03F00303DBB288
:10B13400184605B05DF804FB82B00190019BD3F87A
:10B144001035184602B0704700B587B003900291DD
:10B1540001924FF0A0430493039A029B1344012BE2
:10B1640004D9124940F2163002F0B4F9039B059356
:10B1740011E0059B9B0018336B4453F8083C1846B8
:10B18400FFF7DAFF0246019B1A60019B0433019327
:10B19400059B01330593039A029B1344059A9A4233
:10B1A400E7D300BF00BF07B05DF804FB381E0300FF
:10B1B40084B001900091009B0393019BDB080293F0
:10B1C400019B03F0070301930122019B02FA03F39D
:10B1D4000399029A0A4412781340184604B070473F
:10B1E40084B001900091009B0393019BDB080293C0
:10B1F400019B03F007030193039A029B13441B78FA
:10B204005AB20121019B01FA03F35BB2134359B211
:10B21400039A029B1344CAB21A7000BF04B0704769
:10B2240082B00190044A019B1344303393F90030F7
:10B23400184602B0704700BFF020002082B0019091
:10B24400034A019B52F82330184602B0704700BFEE
:10B25400F020002000B595B0002310930023039341
:10B264004FF48073ADF83A300123129300230F9307
:10B2740021E0BDF83A301846FFF79AFE0346002B4A
:10B284000ED01298FFF7D2FE0346002B08D0BDF86B
:10B294003A301846FFF7A1FE109A129B13431093FD
:10B2A400129B5B001293BDF83A300433ADF83A3088
:10B2B4000F9B01330F930F9B072BDAD94FF4BE700A
:10B2C400FFF776FE0346002B0DD04FF4BE70FFF758
:10B2D40084FE109B43F00043109303AB1A460121F4
:10B2E4000020FFF731FF109BDBB2002B29D0012394
:10B2F400129300230F9321E0129A109B1340002B0A
:10B3040016D00F98FFF79EFE0D900F98FFF7AAFE38
:10B3140003468DF833300F98FFF790FF0B900B9B8B
:10B32400002B05D09DF833200B9B11460D989847B0
:10B33400129B5B0012930F9B01330F930F9B072B00
:10B34400DAD9109B002B80F2EE8000238DF84F3069
:10B3540000230293002311930AE0119B9B005033B6
:10B364006B444FF0FF3243F84C2C119B0133119383
:10B37400119B002BF1D000238DF84F3000230F9345
:10B3840078E06B4A0F9B1344503393F900308DF8E7
:10B394002B309DF82B3023F0C0030993644A0F9B94
:10B3A4001344503393F90030B3F1FF3F5FD001AB46
:10B3B40019460998FFF7FCFE0346002B57D09DF869
:10B3C4002B309B098DF823300998FFF729FF03469A
:10B3D4001846FFF733FF0790079B002B03D19DF816
:10B3E4002330032B43D19DF82330032B04D102AB2C
:10B3F40019460998FFF7F4FE0998FFF787FE0346FC
:10B404008DF81B3003AB19460998FFF7D1FE059060
:10B41400059B002B03D09DF81B30022B06D0059B07
:10B42400002B24D19DF81B30032B20D19DF8233011
:10B43400032B13D19DF81B30022B01D1032300E011
:10B4440002238DF813309DF8133019460998FFF73D
:10B454002FFE9DF84F3001338DF84F30079B002BA2
:10B4640005D09DF82320079B1146099898470F9B08
:10B4740001330F930F9B032B83D99DF84F30002B7F
:10B484004CD001238DF84E306B461A460121002022
:10B49400FFF75AFE0023119314E0119B9B005033D5
:10B4A4006B4453F8502C119B9B0050336B4453F85E
:10B4B400443C9A4203D000238DF84E3005E0119BA2
:10B4C40001331193119B002BE7D09DF84E30002BD4
:10B4D40003D000238DF84F3020E0002311931AE0AD
:10B4E400119B9B0050336B4453F8502C119B9B00D1
:10B4F40050336B4443F8442C119B9B0050336B44F2
:10B5040053F8482C119B9B0050336B4443F84C2C4C
:10B51400119B01331193119B002BE1D09DF84F3007
:10B52400002B7FF428AF00BF15B05DF804FB00BF0B
:10B53400F020002008B5064B1B68002B03D10549F9
:10B54400512001F0C7FF024B1B68984700BF08BD9C
:10B554004C210020B01E030082B00190019B044ADC
:10B56400934201D1034B00E00023184602B0704718
:10B57400002000404C21002000B587B001900091CC
:10B58400019B002B03D11C49772001F0A3FF0198F4
:10B59400FFF7E2FF0590059B002B25D000238DF8D3
:10B5A400133000238DF80B300DF10B031846FCF714
:10B5B400A5FD059B1B79002B03D001238DF81330C7
:10B5C40005E0059B009A1A60059B01221A719DF8FB
:10B5D4000B301846FCF7A8FD9DF81330002B03D060
:10B5E40011230393039B02E000230393039B184658
:10B5F40007B05DF804FB00BFB01E030000B585B0C2
:10B604000190019B002B03D10A499B2001F062FFAA
:10B614000198FFF7A1FF0390039B002B05D0039B28
:10B6240000221A60039B00221A7100BF05B05DF866
:10B6340004FB00BFB01E030082B003468DF8073040
:10B644009DF8073003F01F0205499DF907305B0997
:10B65400012000FA02F241F8232000BF02B0704733
:10B6640000E100E082B0034600918DF807309DF9B7
:10B674000730002B0CDA009BDAB20C499DF8073036
:10B6840003F00F03043B5201D2B20B441A7609E0D3
:10B69400009BDAB206499DF907305201D2B20B443D
:10B6A40083F8002300BF02B0704700BF00ED00E044
:10B6B40000E100E082B00190019B1B0B5BB21846D5
:10B6C40002B0704700B583B003460A468DF80730D0
:10B6D40013468DF806309DF80630012B03D99DF8EA
:10B6E4000630032B0BD99DF80630042B03D99DF8A3
:10B6F4000630072B03D908496B2001F0EBFE9DF8B7
:10B7040006209DF9073011461846FFF7ABFF00BF2E
:10B7140003B05DF804FB00BFEC1E030000B583B06A
:10B7240003468DF807309DF907301846FFF784FF6C
:10B7340000BF03B05DF804FB84B001900B46ADF884
:10B744000230BDF80230019A134400221A60BDF899
:10B754000230019A13441B680393039B00BF04B097
:10B76400704782B001900B46ADF80230BDF802304C
:10B77400019A13441B68002B14BF01230023DBB27E
:10B78400184602B0704782B001900091019B009A64
:10B79400C3F8042300BF02B0704782B00190009147
:10B7A400019BD3F80423009B1340002B14BF0123F7
:10B7B4000023DBB2184602B0704782B001900091BA
:10B7C400019B009AC3F8082300BF02B0704784B0FD
:10B7D4000190019BD3F880340393019B039AC3F82F
:10B7E4008024039B184604B0704782B00190019BEB
:10B7F4000422C3F8002500BF02B0704784B0039050
:10B8040002910192039B019AC3F81425039B029AA7
:10B81400C3F80C2500BF04B0704784B003900291B4
:10B824000192039B029AC3F80825039B019AC3F86B
:10B83400102500BF04B0704782B00190019BD3F87B
:10B844001835DBB2184602B0704782B001900B463F
:10B854008DF803309DF80320019BC3F81C2500BF1D
:10B8640002B0704782B001900B468DF803309DF80A
:10B874000330019A134401221A6000BF02B07047DA
:10B8840082B001900B468DF8033013468DF80230D8
:10B894009DF803209DF802301343DBB21A46019B46
:10B8A400C3F86C2500BF02B0704782B001900091CC
:10B8B400019B009AC3F8242500BF02B07047000022
:10B8C40000B583B00190019B1B681F2B04D9054967
:10B8D4004FF4F37001F0FEFD4FF0A043184603B09F
:10B8E4005DF804FB1C1F030000B585B001900846F9
:10B8F40011461A4603468DF803300B468DF8023084
:10B9040013468DF8013001AB1846FFF7D9FF0390B9
:10B914009DF803209DF802305B001A439DF8013026
:10B924009B001A439DF818301B0242EA03019DF85C
:10B934001C301B04019A1943039B02F5E07243F87F
:10B94400221000BF05B05DF804FB00B585B003907C
:10B954000023019300230093002301220121039873
:10B96400FFF7C2FF00BF05B05DF804FB00B585B06A
:10B9740003900B468DF80B309DF80B30002201929A
:10B9840000220092002200210398FFF7ADFF00BFC0
:10B9940005B05DF804FB00B585B0019001AB184615
:10B9A400FFF78EFF0390019B012202FA03F319466D
:10B9B400039800F004F800BF05B05DF804FB82B002
:10B9C40001900091019B009AC3F8082500BF02B0C2
:10B9D400704700B583B001900091009B1B68B3F1E0
:10B9E400FF3F09D0009B1B681846FFF7D4FF009B5C
:10B9F4001B681846FFF7A9FF009B5B68B3F1FF3F84
:10BA040005D0009B5B6800211846FFF7AFFF019B40
:10BA14001A68009B9B6919461046FFF746FF019B75
:10BA24001868009B597D009B1B7D1A46FFF728FF71
:10BA3400019B1868009B1968009B5B681A46FFF716
:10BA4400DDFE009B1B7D012B22D1009B9B68B3F183
:10BA5400FF3F05D0009B9B6800211846FFF786FF37
:10BA6400009BDB68B3F1FF3F09D0009BDB681846FD
:10BA7400FFF791FF009BDB681846FFF766FF019B09
:10BA84001868009BD968009B9B681A46FFF7C5FE9F
:10BA940000BF03B05DF804FB00B583B001900B4612
:10BAA4008DF80330019B1B684FF48E711846FFF725
:10BAB40043FE019B1B684FF4A2711846FFF73CFE3E
:10BAC400019B1B680E491846FFF75DFE019B1B682E
