:020000022000DC
:1060000000000120756302005D6302005F6302000F
:106010006163020063630200656302000000000028
:1060200000000000000000000000000067630200A4
:1060300069630200000000006B6302006D630200F0
:10604000FD8302006F630200458802006F63020057
:106050006F6302006F630200CD8602006F6302006F
:106060006F6302006F6302006F6302006F630200E0
:106070006F6302006F6302006F6302006F630200D0
:106080006F630200A17102006F6302006F63020080
:106090003D7202006F630200C5A002006F63020040
:1060A0006F6302006F6302006F6302006F630200A0
:1060B0006F6302006F630200000000000000000038
:1060C0006F6302006F6302006F6302006F63020080
:1060D0006F6302006F6302006F6302000000000044
:1060E00000000000000000000000000000000000B0
:1060F00000000000000000000000000000000000A0
:10610000000000000000000000000000000000008F
:10611000000000000000000000000000000000007F
:10612000000000000000000000000000000000006F
:10613000000000000000000000000000000000005F
:10614000000000000000000000000000000000004F
:10615000000000000000000000000000000000003F
:10616000000000000000000000000000000000002F
:10617000000000000000000000000000000000001F
:10618000000000000000000000000000000000000F
:1061900000000000000000000000000000000000FF
:1061A00000000000000000000000000000000000EF
:1061B00000000000000000000000000000000000DF
:1061C00000000000000000000000000000000000CF
:1061D00000000000000000000000000000000000BF
:1061E00000000000000000000000000000000000AF
:1061F000000000000000000000000000000000009F
:10620000354936480A1A02D0072291438D4634494F
:1062100034480A1A06D00722914381F309880222E2
:1062200082F3148830483149314A00F044F831484B
:106230003149324A00F03FF831483249324A00F0E1
:106240003AF832483249334A00F035F83248334997
:10625000334A00F030F833483349344A00F02BF821
:1062600033483449344A00F026F83448344900228F
:1062700000F02CF833483449002200F027F8334866
:106280003349091A082902DB002202604160314AC1
:1062900090471F481F49884205D00268043003B464
:1062A000904703BCF7E700208646EC46002000211B
:1062B000294A9047FEE7884207D0521A05D0037852
:1062C00001300B700131013AF9D17047884202D098
:1062D00002700130FAE770470000012000E0002062
:1062E0000000012000000120CCB20200A81800200C
:1062F0000C190020D4630200D463020022A602001D
:10630000CCB20200A8180020A8180020D0A60200D5
:10631000D0A60200D0A60200D0A60200D0A602009D
:10632000D0A60200D0A60200D0A60200CAB2020087
:1063300030B302000C1900200C1900200C190020A9
:10634000C0240020C0240020C0240020C02400203D
:10635000C04400209D630200ED940200FEE7FEE7CA
:10636000FEE7FEE7FEE7FEE7FEE7FEE7FEE7FEE705
:10637000704700BF1048804710484FF0070188431E
:1063800085460F4880470F48016841F4700101605D
:10639000BFF34F8FBFF36F8FFFF732BF0A480B4930
:1063A0000B4A884207D0521A05D0037801300B708F
:1063B0000131013AF9D170477163020000000120F8
:1063C000417E020088ED00E0D0A60200A81800205F
:0463D000A8180020E9
:1063D4007047000007B5044B0093044A402300F0C3
:1063E40032F803B05DF804FBF56302000D190020D8
:1063F4002DE9F84388461446B2B10F4B0F4E0325DE
:10640400002743F00109224608EB0701002003F0AE
:106414005DF90744241A48B933782BB14FF47A4014
:10642400C847013D02D13570BDE8F88301233370BC
:10643400002CE8D1F8E700BFD0A602000C19002018
:10644400704703F093B9F0B595B01D46164608465B
:106454000C4601F015FC1A9B0D93CDE90865002547
:106464002B46082205A920460A958DF82C500C9538
:1064740001F022FC079B0293069B03939DF81430C2
:106484008DF8115003F00302012A1DD1BDF8142028
:10649400059DC3F3C203C2F383168DF81030B20016
:1064A40008230EA9204601F007FCC5F3952508AB87
:1064B4000093324602AB0EA9284600F0E1FB2046C9
:1064C40001F0E2FB15B0F0BD022AF8D1BDF8165078
:1064D400C3F3C203C5F389158DF810300827082DBE
:1064E4002E4628BF08263B4632460EA9204601F018
:1064F400E3FBAD1B08AB02AA31460EA8374400F0FB
:1065040023FC002DEBD1DAE7014B01221A7070470E
:106514008E1900207047000070B50E4D06460FCD51
:1065240088B06C460FC495E80F00002E84E80F0075
:10653400094A0A484FF0060308BF0022694600933F
:1065440001F0F4FE08B100F07DFD054B1E7008B0AB
:1065540070BD00BFE4A602000D650200A81800206B
:106564004D19002007B5044B0093044A4023FFF75C
:106574006AFF03B05DF804FB856502004E19002034
:1065840038B50D480D4C0E4D002323700378EB5C99
:10659400D2B263B1043002F095FD08B100F052FDAF
:1065A400084B1A7812B12378002BFBD038BD0C307D
:1065B40002F080FBF1E700BFA81800208E1900202C
:1065C400B82000204D19002008B50848084A03786F
:1065D400D35C3BB1043002F007FDBDE80840002065
:1065E400FFF79ABF0C3002F0F7FAF6E7A81800207C
:1065F400B82000200120FFF78FBF000038B50A4DF6
:10660400FFF71FFF0421284600F0A4FA074B0124DA
:106614005C71FFF7EFFF042105F1100000F09AFA16
:10662400034B5C7138BD00BFB0A60200BC1800204B
:10663400C4180020037813F0040216D003F00303F7
:10664400012B03D0022B09D0012070470A6800886F
:106654000232C0F3831002440A60F5E70B684288F3
:10666400023303EB92130B60EEE710467047000011
:106674002DE9F04FDFF830A187B00F460023044620
:10668400861C0DF1070015468DF8073000F0CAFF8F
:10669400DAF800103960DAE90132134401335B1A85
:1066A4000AF21C470AF583690AF21448B3421CD360
:1066B4000020002D73D004F00F039B0143F0050369
:1066C40063F30F00DAF80020DAF8083013400333DC
:1066D40032444AF823009DF80700CAF8002000F06D
:1066E400C5FF012007B0BDE8F08F0121384600F056
:1066F400F6FF484601F00BF8404601F008F8DAF8D6
:106704000400DAF808B0029000EA0B0003300AEB48
:10671400800002A9FFF78EFF029B50BB0BEA030225
:106724000AEB820203F1020CD2680392013303EAFA
:106734000B0B0AEB8B0B02F00302012ADBF80C10A3
:10674400CDF808C023D0022A16D08346404600F074
:10675400E1FF10B1029BCAF804305946384600F0F4
:10676400BEFFDAE901231344DAF8002001339B1A4F
:106774009CE70BEA0300C9E7BDF80E30C3F38913A5
:1067840003334FEA114B0CEB93030293DEE7BDF89E
:106794000C30C3F383134FEA114B6344F5E7A405AC
:1067A40044F006008EE700BF601A00200B4B0C4833
:1067B400FF2210B59A600022C3F81824C3E900220E
:1067C400C3F8142483F8202401F013FA044610B902
:1067D400044801F0BBFA204610BD00BF601A002037
:1067E40044A6020048A7020030B50A4C71B10A4A17
:1067F4000A49121BD20800239A4201D1002030BD5D
:1068040031F82350854202D00133F5E7034654F8AA
:106814003300F4E758A60200B0A60200A81800202E
:10682400094B013903EBC000032909D8DFE801F063
:106834000A020406042070470079704740797047C3
:10684400002070470220704758A60200034BD3E98A
:106854000030C31A58425841704700BF601A0020E4
:106864002DE9F04387B0FFF7F1FF0646002840F01A
:10687400FE80804CC4F81804BFF34F8F6368A5688A
:1068840002932B40033304EB830002A9FFF7D2FEEB
:10689400029B18B1D4F81824002A62D005EA030236
:1068A400991C013304EB82022B4004EB8303D2686E
:1068B400DB68049302F00303022B0392029163D179
:1068C400BDF80E306C48C3F38917502FB84628BF63
:1068D4004FF0500808F1080168F38F13C1F3090160
:1068E400ADF80E3001F09DF90646002800F0AA80AC
:1068F40001F0C6F90023082203A9304601F0D2F9B9
:10690400029925EA01020132B8EB820F4FEA8203B1
:1069140033D95FFA88F863B32940DDB2A8EB0508E0
:1069240003315FFA88F9A846544D04EB810108232A
:106934004246304601F0B6F93DB108F10803DBB236
:106944004A462946304601F0ADF9029B033703EB72
:1069540097070297D4F81834002B4BD1D4F810546D
:106964005BE022689A428CD86260304607B0BDE88A
:10697400F08342491D469946D9E72940033108234B
:10698400424604EB8101DDE7012B5BD1BDF80C30FD
:106994003948C3F38311062928BF062161F38913FB
:1069A400023101F00F018900ADF80C3001F039F922
:1069B4000646002846D001F063F90023082203A903
:1069C400304601F06FF90027BDF80C20C2F38312A2
:1069D400BB00974203F10803BCD202994A1C294028
:1069E4000331029204EB81010422304601F05AF98A
:1069F4000137E9E7304601F047F9FFF727FF80F058
:106A04000100C6B2B1E7EB685B7923B12B6831466C
:106A14001B6828469847EB681D68002DF3D1304663
:106A240001F032F90DF107008DF8075000F0FAFD7E
:106A3400D4F818340BB9029B63609DF8070000F08A
:106A440015FEDAE7D4F8104454B90D4B0D480E493D
:106A5400C01AC008000440F0020000F063F8CCE75C
:106A6400236820469B689847E3681C68ECE7002687
:106A74007BE700BF601A002044A602006C1A0020C5
:106A840058A6020080A6020031A702002DE9F74FA4
:106A9400224E04460F46924601A901221846D6F812
:106AA40008909B46FFF7E4FD20B3019D4FF00008DA
:106AB400AA1CD84508EB020126D11948002100F090
:106AC400EBFD80F31000000440EA1440E4006B1C6A
:106AD40004F0380403EA090305EA090544F0010453
:106AE40006EB8303033544EA881444EA8724D86018
:106AF40046F8254096F820341BB1FFF7B1FE002874
:106B0400FBD103B0BDE8F08F09EA010106EB810176
:106B14005AF82830CB6008F10108CAE7601A00204F
:106B24007C1E002000231A46FFF7B0BF07B50123DF
:106B3400019201AAFFF7AAFF03B05DF804FB07B5B1
:106B4400CDE9002302236A46FFF7A0FF03B05DF8F6
:106B540004FB000030B50F4CD4F810240346002089
:106B6400114631B9D96808714AB9C4F810340A60B9
:106B740030BDC9680D79854206D00968F1E7D2684D
:106B840014680C601360F3E701300A28E8D14FF071
:106B9400FF30EDE7601A002038B5084B0125D3F823
:106BA400104483F8205404B938BDE3685D71236848
:106BB40020465B689847E3681C68F4E7601A002085
:106BC40030B5C38885B004460D4633B1144A0092EB
:106BD4001449154A284600F000FE217A05291DD0E3
:106BE400637A4BB1A088FFF71BFE104B104953F892
:106BF4002020284600F0F1FD227A0E4BA08853F89D
:106C0400222003920021FFF7EFFD039A0A4903466D
:106C1400284605B0BDE8304000F0DFBD05B030BD0A
:106C240074A702005CA7020054A70200E0A70200B8
:106C340079A7020004A802007CA7020007B5034656
:106C44000846197A052911D05B7A2BB1094A0A49F9
:106C5400019000F0C2FD01980849019000F0BDFDCB
:106C6400019803B05DF804EB00F0ACBD002AF8D045
:106C7400F2E700BF74A7020079A7020071A702001F
:106C84002DE9F04385B01F460C9D002395F80C9028
:106C94002B7306460C46904629463846FFF790FF6C
:106CA400B8F1060F09D8DFE808F00412181F2833DA
:106CB40040003146284600F090FD0022294638461F
:106CC400FFF7BCFF85F80C9005B0BDE8F08322689F
:106CD4003146284600F081FDEFE7D4E90023314630
:106CE400284600F07AFDE8E7A36800933146D4E92A
:106CF4000023284600F071FDDFE7E3680193A368F1
:106D040000933146D4E90023284600F066FDD4E719
:106D140023690293E3680193A36800933146D4E99D
:106D24000023284600F059FDC7E7636903932369EC
:106D34000293E3680193A36800933146D4E90023E6
:106D4400284600F04AFDB8E708292DE9F74F8046A8
:106D54000E4617461C463DD800251B7B257321464D
:106D640010460193FFF72CFFDFF88CA0DFF88CB0FE
:106D7400AE4232D918F805205946204600F02DFDC0
:106D84000135082DF4D11B49DFF874A0DFF874B085
:106D9400204600F022FD4FF000094E4524D918F892
:106DA40009507E2D1ED8284603F086FB002814BF08
:106DB4002A462E225946204600F00FFD09F101090A
:106DC400B9F1080FE9D1012221463846FFF736FF11
:106DD400019B237303B0BDE8F08F5146204600F0B9
:106DE400FCFCCDE72E22E5E75146204600F0F5FCF9
:106DF400E4E700BF90A702008CA7020086A7020068
:106E04008EA7020092A702002DE9F84F2F4F304EB3
:106E14004FF000082F4B1B785FFA88F5AB4201D87E
:106E2400BDE8F88FD7F8009019F835000124A0F1D7
:106E34002002C0F1200304FA02F224FA03F31343FC
:106E4400D6E9001204FA00FC01EA0C0B02EA030E74
:106E54005BEA0E0E09EBC50A35D021EA0C0122EAE1
:106E64000303C6E9001301F025FC024619F83500B6
:106E7400194DA0F12003C0F1200124FA01F104FA14
:106E840003F30B43D5E900C1C0F120050B40A0F189
:106E9400200122FA05F5844002FA01F1294304EAAB
:106EA4000C0402FA00F58B4208BFAC420BD1DAF8AD
:106EB400043043B19AF801104C1E614261418D1AAD
:106EC40069426941984708F10108A3E7581F002067
:106ED400501F00201C1F0020481F0020F8B5074643
:106EE4001E4800F08FFBB8BB01251D4EA7F12004FE
:106EF400C7F1200325FA03F305FA04F41C43D6E989
:106F04000023BD4002EA050003EA040101431DD148
:106F1400384601F0CFFB134BD3E9001288B1294363
:106F24002243C3E90012D6E900232A432343C6E9D6
:106F340000230D4B094819680022BDE8F84000F011
:106F440019BB21EA050122EA0402EAE722EA050262
:106F540023EA0403C6E90023F8BD00BF241F002070
:106F6400501F0020481F0020201F0020042A2DE964
:106F7400F34105460C4616463BD901F0D3FAE8B175
:106F84001D4B1E491D601E4BDFF888801C701D4B75
:106F940000221E600023C1E900231B49C1E900232C
:106FA400013CE4B200260327FF2C0ED1174A1848EF
:106FB400002102B0BDE8F04100F0CABA01F082FA43
:106FC4000028DDD002B0BDE8F08105EBC40315F85C
:106FD40034009B788DF80660424601A98DF8047050
:106FE4008DF8053001F0A8FA013CE4B20028DBD0AA
:106FF400E8E70720E6E700BF581F0020481F0020ED
:107004001C1F0020201F0020501F00200D6E0200B6
:1070140018A80200E16E020070B5084D084E002465
:107024002B789C4201D3002070BD3368012113F8F2
:10703400340001F0F9FA0134F2E700BF1C1F00200C
:10704400581F00201FB50021039001AA44F201003B
:10705400CDE9011100F004F805B05DF804FB00006F
:1070640038B572B6FFF798FDFFF7FAFB0028FBD19D
:10707400104B114C114D1249E41AE408240444F055
:107084000100FFF74FFDD5F8F030DB0700D500BE57
:107094000C4944F00200FFF745FDBFF34F8FEA6847
:1070A400094B02F4E0621343EB60BFF34F8F00BF60
:1070B400FDE700BF58A6020080A6020000ED00E034
:1070C4001CA8020028A802000400FA05094B5A78FB
:1070D40099780132D2B2914208BF002219789142C4
:1070E4001FBF02705878182202FB003014BF04300E
:1070F400002070475C1F002073B5054600240DF185
:1071040007000E468DF8074000F08CFA0DF10600DA
:10711400FFF7DCFF90B10670094B9DF8062045602F
:107124005A709DF8070000F0A1FA24B9054B4FF4FA
:107134008012C3F80021204602B070BD0424F0E799
:107144005C1F002000E100E0024B4FF43C6043F080
:107154000103184740A8020038B50C4B0C4C4FF4FF
:107164000032C3F8802001254FF48033C4F848333B
:10717400C4F808336560FFF7E7FF064BA5600024F9
:107184001C60FFF7E1FF044B1C7038BD00E100E018
:10719400001001407820002069200020F8B51F4B22
:1071A4001F491B680025C1F84051C1F84451C1F87A
:1071B4004851C1F84C51C1F80051C1F804514BB3C6
:1071C400D1F8044517490968641A24F07F442F460E
:1071D4001A68A24209D8A41A15441A7CDE691AB1A5
:1071E400D3E905201F749047AEB90F4A0F4B1178AD
:1071F4001B788B4205D10133DBB2022B08BF00237D
:10720400137012780A4B43F822500A4B4FF4801241
:10721400C3F80021F8BD3346DAE700BF7C20002024
:1072240000100140782000207520002074200020E8
:107234006C20002000E100E02DE9F04FA14AA249B2
:1072440013780978A14D994285B03CD00133DBB263
:10725400022B08BF002313709D4912789D4B0F68C1
:1072640053F822003B1823F07F4300220B602B6865
:1072740016461446944613B942B12B6006E01968C9
:1072840081420ED902B12B60091A196001272B68BB
:10729400DFF848A201934FF00008BEB9DFF844B20A
:1072A40060E0401A0C44D968D3F81CE0C3F800C06D
:1072B40031B13A1922F07F42C3E90121DE611E4651
:1072C40073460122D7E700263746E0E73446F669DD
:1072D4007F4B60681B68DFF810C2A168C21A22F0F5
:1072E4007F42624500F2A6800A4422600122227491
:1072F4002A680023C4E90133E361002A40F0A38033
:107304002C60CAE79BF802105A1CD2B291428BF847
:10731400002004BF00228BF80020182202FB03B3D4
:107324002A6819799C68022975D003297FD001291C
:1073340018D1207CB0B9D3E90312A2605A69E26083
:107344009A69654BA2611A78002A18BF01466160E8
:10735400BEE78C4200F094808946C9690029F8D1BF
:10736400002323749BF800309BF801209A42C9D172
:107374002B68B8F1000F04D1019A9A4201D1002F71
:1073840043D0002B79D0D3F800A0544D504BD5F8FE
:1073940004751C68DFF854813E1B98F8003026F011
:1073A4007F4603369BB94FF48033C5F84433C5F8A0
:1073B40004334B4B4FF400324FF00109C3F88021E2
:1073C4001A60C5F80090FFF7BFFE88F80090B24538
:1073D4002CBF5444A41924F07F44C5F84045D5F883
:1073E4000435DB1B23F07F43E41B033324F07F4489
:1073F400A3420AD9D5F80435C5F84035FFF7A4FEF1
:10740400374B4FF40032C3F80021334B00221A707B
:1074140005B0BDE8F08F114691469FE71174D2691B
:107424000123002AFAD1002B9CD02A609AE700237A
:107434001946F6E71B1A23F07F438B4234BFCB1A5D
:107444000023236052E721681368994213D85B1A1A
:107454001360E26154E7091AD8691A4638B1034641
:1074640018688842F7D3401A1860184613462160FA
:10747400E061DC6111E71346F2E7FFF76DFEC4E754
:107484004C4511D1D3692B6073B9DFF844E0012076
:10749400CDE90212CAF80800CEF800300E4B18707D
:1074A400FFF752FEDDE902120B68C969C9F81C1026
:1074B40011B1086803440B602B68934218BF4FF066
:1074C40001084DE774200020752000207C20002056
:1074D400782000206C20002068200020001001404B
:1074E40000E100E05C1F0020FEFF7F006920002017
:1074F40008B5FFF731FE104B00200B2218809A705C
:107504000E4B18600E4B18700E4B18700E4B4FF448
:107514008012C021C3F8802183F814131A6002F189
:107524008042A2F56F22C2F8080583F81113074BB5
:10753400D2F804251A6008BD5C1F00207C200020BE
:10754400742000207520002000E100E07820002055
:10755400074B9B784BB132B128B10368187C20B932
:1075640059745A617047072070470820704700BF5C
:107574005C1F00202DE9F743DFF8848098F802307F
:1075840005460E461746ABB3A0B3042930D9436968
:1075940083B3437C0024012B0DF107000CBF894603
:1075A400A1468DF8074000F03DF80DF10600FFF705
:1075B4008DFDD8B1012303700F4B4560D3F804351A
:1075C400C0E90497C0E902369DF8063088F8013016
:1075D4009DF8070000F04AF824B9084B4FF48012D4
:1075E400C3F80021204603B0BDE8F0830424EFE78C
:1075F4000724F7E70824F5E70010014000E100E064
:107604005C1F0020064A92783AB130B1426922B137
:10761400002202740221FFF76FBD0820704700BFEB
:107624005C1F002070B5EFF3108672B60C4A9468A4
:1076340001239CB993600B4B0B4DD3F88010294068
:107644001160C3F88050D3F8841051604FF0FF32BA
:10765400C3F88420047006B962B670BD0370FAE7FB
:107664008020002000E100E0FC06FFBD084B9A6882
:1076740010B55AB150B9EFF3108172B6054A1C68BF
:1076840014605C685460986001B962B610BD00BFB4
:107694008020002000E100E010B5034653E8000F0D
:1076A4000A4643E8002494F0000FF7D110BD10B54A
:1076B400034653E8002F42EA010043E8000494F033
:1076C400000FF6D110BD10B5034653E8000F00EAD1
:1076D400010243E8002494F0000FF6D110BD10B568
:1076E400034653E8002F02EB010043E8000494F042
:1076F400000FF6D110BD10B5034653E8002FA2EBDE
:10770400010043E8000494F0000FF6D110BD0121FC
:10771400FFF7CDBF0021FFF7D6BF10B590B1D0E978
:10772400012301689B1ADBB20A60013BDBB2FF2B29
:10773400026802D10020107110BD11684C1C146045
:107744000B70F2E70E20F7E737B5054600240DF17C
:1077540007008DF80740FFF765FF2A686B6811681A
:1077640099420ED9481E106011F8013CEC68298A30
:1077740001FB0344AB6811791B1ADBB2994238BF91
:1077840013719DF80700FFF771FF204603B030BD69
:1077940037B5054600230DF107000C468DF8073078
:1077A400FFF740FF2A681368591C1160E968641ADE
:1077B400298AB4FBF1F41C709DF80700FFF756FF0B
:1077C40003B030BD826810B504462AB1436901682C
:1077D400006998470023A36010BD0EB403B5039954
:1077E40021B104AB01AA019300F076F802B05DF870
:1077F40004EB03B070470A2938B504460D4602D19C
:107804000D21FFF7F8FFA3682268591CA160D55425
:10781400D4E901329A4204D32046BDE83840FFF748
:10782400D1BF38BD2DE9F84F9846DDE90A43154626
:1078340082460F460A464FF00109AA420FD2C145BB
:1078440038BFC14613F0010B01D16CB900240126E5
:10785400B8F1010F1BD908F1FF386E43F8E709F1BD
:107864000109B2FBF5F2E8E79B070ED5B8F1000F6A
:107874000CBF30262026A145E9D2013C31465046B2
:10788400FFF7B9FF002CF6D1E0E72026F3E7B7FBBA
:10789400F6F39D42E1D9DFF83C80B7FBF6F350469E
:1078A40018F8031006FB1377FFF7A5FF3346AB4226
:1078B400B6FBF5F6F1D2BBF1000F02D00CB1A14535
:1078C40001D3BDE8F88F20215046013CFFF793FF18
:1078D400F4E700BF46A802002DE9F74F0546174616
:1078E4008846002900F03E8118F8011B49B92B7B1A
:1078F400002B00F03781284603B0BDE8F04FFFF7B6
:1079040061BF252940F0B780002698F800302D2B60
:10791400424608F1010823D0302B24D02B2B25D04C
:1079240000242A2B02F1010123D13B681A1D1B6894
:107934003A601C440A4613782E2B26D101324FF0AC
:10794400000A104610F8011BA1F1300CBCF1090F1C
:107954001DD80A2303FB0A13A3F1300A0246F0E7F9
:1079640046F00106D1E746F00206CEE746F00406EB
:10797400CBE711F8013CA3F130000928DBD80A2237
:1079840002FB0434303C0A46CBE74FF0000A12F8FD
:10799400011B01F0FB0068289046F8D0782909D82B
:1079A4006F290CD8632962D022D8252963D058299D
:1079B40000F0888098F80030002B95D197E7703953
:1079C4000829F7D801A353F821F000BF437B020034
:1079D400B9790200B9790200D97A0200B9790200B2
:1079E400B77A0200B9790200B9790200C97A0200B3
:1079F400642901D06929DDD13A68D2F80090111DBB
:107A040089EAE9723960A2EBE9724FF0010B092AA5
:107A140035DCD34538BFD3462CB1B9F1000F01DBB7
:107A2400720700D5013CB30702D5BAF1000F03D0A9
:107A3400F00701D44CBB0024B9F1000F2DDAC9F1D1
:107A440000092D212846FFF7D6FE06F00302022A7C
:107A540004D1BAF1000F01D11CBB0024CDE90046CA
:107A640053460A2249462846FFF7DCFEA2E73B6854
:107A74001A1D19783A602846FFF7BDFE9AE70A23D3
:107A84000BF1010BB2FBF3F2C1E7A345D4D22021E1
:107A94002846013CFFF7AFFECCE77107D5D52B2173
:107AA400D0E7A345DAD230212846013CFFF7A3FEF4
:107AB400D2E73968CDE900460A1D3A6053460A22E6
:107AC4000968D0E739680A1D3A60CDE90046534693
:107AD4001022F5E73B681A1D3A6016F00106D3F848
:107AE400009024D1B9F1000F03D0484602F067FD9D
:107AF4000646B4421DD809F1FF3919F8011F0029BF
:107B04003FF458AF2846FFF776FEF6E728460136DD
:107B1400FFF771FE19F806100029F7D1A642BFF449
:107B240049AF20212846013CFFF765FEF6E7002611
:107B3400F0E720212846013CFFF75DFED9E73B68CA
:107B44001A1D3A60302128461C68FFF754FE78213C
:107B54002846FFF750FE00220823CDE900322146D3
:107B6400102280E703B0BDE8F08F00BF2DE9F84F85
:107B7400B0F806A04579D2F800B09DF828900AFB29
:107B840005F5043D88460BEB0301A94203F1040407
:107B940088BFA5EB030BB4FBFAF607460AFB1644B1
:107BA400C2F800B04EB9AAEB04055D4528BF5D4696
:107BB400BBF1000F04D1BDE8F88F3F68013EF1E747
:107BC400043408EB06003C442A46B9F1000F0DD0FA
:107BD4002146ABEB050B02F074FCDA452E443F68FA
:107BE40055464FF0000428BF5D46E1E701462046B4
:107BF400EFE7FFF792BDF8B546790146721E0546D8
:107C0400002393422D6803D30024A64202D8F8BD72
:107C14000133F6E70F682846FFF7BAFD0134394609
:107C2400F3E72DE9F843068ACD1C0746FFF78CFDE0
:107C3400043E35440446B5FBF6F5F0B14FF48073C9
:107C4400EDB28380C680013D076081464FF0000895
:107C5400A84512D23846FFF777FD064648B1637946
:107C64000133637108F10108C9F800000760814617
:107C7400EEE72046FFF7BFFF34462046BDE8F88311
:107C840001210430FFF72BBD10B501210446043057
:107C9400FFF731FDC0B220B92046BDE81040FFF720
:107CA400AABF10BD1FB503920022009203AAFFF7DA
:107CB4005DFF05B05DF804FB1FB50392012200923D
:107CC40003AAFFF753FF05B05DF804FB41DF7047DB
:107CD400064B10B500241C70054B1C60BFF35F8F6E
:107CE4000449054800F03BF8204610BD94200020CC
:107CF4009820002060A802008C20002007B50023F3
:107D04000DF107008DF80730FFF78CFCF1EE103A07
:107D140023F09F03E1EE103ABFF35F8F0A4B40223A
:107D2400C3F884219DF80700FFF7A0FC02F0AEF928
:107D340020B103B05DF804EBFFF7C8BF20BF40BF1C
:107D440020BF03B05DF804FB00E100E0836800227B
:107D54005A60C3E904229A60DA601A6070470B68BB
:107D64004A684360934208BF0023016008BF436030
:107D74007047436843B10268916852680B44934268
:107D8400436004BF002343607047000010B50D49F1
:107D9400A1F59472914201D800200FE08C1AE30FF0
:107DA40003EBE4035B1002EBC30452F83330834269
:107DB40005D802D204F10802ECE7606810BD214640
:107DC400E8E700BF64AD020008B5FFF7DFFF024B30
:107DD400002808BF184608BD26AC02004FF07043C7
:107DE40093F8E02F062A10D1D3F8E42F12070CD110
:107DF400D3F8E80F00F0F003302B08D000F0E000D7
:107E0400A0F14003584258417047002070470120B8
:107E140070474FF0704393F8E02F062A0CD1D3F843
:107E2400E42F120708D1D3F8E80F00F0F000A0F116
:107E340030035842584170470020704708B5FFF797
:107E4400CDFF40B14FF08053884AD3F82433C3F3B5
:107E54000423C2F84035FFF7DCFF10B1844B854A98
:107E64005A67FFF7BBFF48B14FF080534FF0804291
:107E7400D3F84432C3F34233C2F83C35FFF7C9FFA9
:107E840030B17D4AD2F8FC3023F08073C2F8FC3064
:107E9400FFF7A4FF40B14FF080430022C3F80C2148
:107EA400C3F81021C3F83825FFF7B3FF20B14FF012
:107EB40080430322C3F8A025FFF7ABFF60B16F4BEB
:107EC4000522C3F810260122C3F888260022C3F82D
:107ED40018263F22C3F814264FF0704393F8E02F7E
:107EE400062A50D1D3F8E42F11074CD1D3F8E83F38
:107EF40003F0F003502B46D14FF08052604BD2F880
:107F04000414C3F82015D2F80814C3F82415D2F8C1
:107F14000C14C3F82815D2F81014C3F82C15D2F891
:107F24001414C3F83015D2F81814C3F83415D2F861
:107F34001C14C3F84015D2F82014C3F84415D2F821
:107F44002414C3F84815D2F82814C3F84C15D2F8F1
:107F54002C14C3F85015D2F83014C3F85415D2F8C1
:107F64003414C3F86015D2F83814C3F86415D2F881
:107F74003C14C3F86815D2F84014C3F86C15D2F851
:107F84004424C3F87025FFF729FF48B14FF080530C
:107F94004FF08042D3F8583203F04F03C2F8E43E66
:107FA400FFF71CFF48B14FF08043D3F80024D207F9
:107FB40044BF6FF00102C3F800244FF08053D3F89C
:107FC4003021062A0AD1D3F83431062B01BF2D4AB9
:107FD400D2F83C3743F48063C2F83C37264AD2F8DF
:107FE400883043F47003C2F88830BFF34F8FBFF377
:107FF4006F8F4FF01023D3F80022002A03DBD3F84D
:108004000432002B2EDA204B0122C3F80425D3F8C6
:108014000024002AFBD04FF010221521C2F80012D0
:10802400D3F80024002AFBD04FF010231522C3F804
:108034000422154BD3F80024002AFBD00022C3F8F5
:108044000425D3F80024002AFBD0BFF34F8F0A493C
:108054000E4BCA6802F4E0621343CB60BFF34F8F48
:1080640000BFFDE70A4B0B4A1A6008BD003001400F
:1080740000C007400DF0ADBA00ED00E00050004034
:1080840000C000400010004000E001400400FA0578
:10809400CC1800200090D003054A4FF0A043105C98
:1080A400D3F8043523FA00F0C04300F00100704710
:1080B40064AD0200044B1A5C012393404FF0A042CC
:1080C400C2F80C35704700BF64AD0200044B1A5C63
:1080D400012393404FF0A042C2F80835704700BF17
:1080E40064AD020008B50020FFF7F0FF0120FFF7A0
:1080F400EDFF0220FFF7EAFFBDE808400320FFF789
:10810400E5BF08B50020FFF7D5FF0120FFF7D2FF38
:108114000220FFF7CFFFBDE808400320FFF7CABFE6
:10812400074A4FF0A041105CD1F804350122824087
:1081340022EA03001340C1F80805C1F80C35704762
:1081440064AD02000D2809D00E2809D00F2809D0EB
:1081540010280CBF03204FF0FF30704700207047F9
:108164000120704702207047C20708B501460CD5AC
:108174004FF0A0430322C3F84427C3F84827C3F8A9
:108184004C27C3F85027FFF7ADFF8B070AD54FF0F4
:10819400A0430C22C3F83427C3F83827C3F83C277C
:1081A400C3F8402708BD000038B5074C051E04F18C
:1081B400080318BF1C4623682BB11A6822605B6849
:1081C40028469847F7E738BDA420002020B9054B7E
:1081D40001225A70FFF7E8BF012802D1014A9070CA
:1081E400F8E770479C20002020B9034B01225A7005
:1081F400FFF7DABF704700BF9C20002038B50B4C56
:10820400237883B90A486360A3602361E36000F0C4
:10821400CBF8054601F03AFF08B900F0D1F8012384
:108224002370284638BD8525FBE700BF9C2000202D
:10823400D181020037B50B4C00230DF107008DF8F6
:108244000730FFF7EFF9E368013BE360E56815B930
:1082540000F0C8F8A5709DF80700FFF707FA03B00F
:1082640030BD00BF9C200020012813B508D003288E
:108274001CD018B9114B0122C3F8802002B010BDE4
:108284000F4C00230DF107008DF80730FFF7CAF9F2
:1082940023780BB9FFF7B2FFE3689DF807000133B9
:1082A400E3600123A370FFF7E1F9E7E700F088F842
:1082B40002B0BDE81040FFF7BDBF00BF00E100E021
:1082C4009C2000201FB503788DF80030436801938B
:1082D40083688DF80830C368054A0393054B6846E4
:1082E40053F8213052F82110984705B05DF804FB8B
:1082F400B0200020B42000201FB503788DF8003092
:108304004368019383688DF80830C368054A039372
:10831400054B684653F8213052F82110984705B0B0
:108324005DF804FBB0200020B4200020F0B5194B08
:1083340090F800C091F81DE043F82C20164B164627
:108344000A6943F82C20154B03F80CE00C46074649
:108354000FCC89B06D460FC594E80F0085E80F0077
:10836400CDF810C0BEF1000F09D0002E0C4A6946AA
:1083740008BF3246381D00F075FD09B0F0BD002E6F
:10838400084A694608BF324607F10C0000F06AFB50
:10839400F3E700BFB4200020B0200020B820002064
:1083A400C9820200FD820200044A137923B9012123
:1083B400106091801846704785207047BC200020CB
:1083C400074B1A68D2075FBFC02283F8002301223B
:1083D4001A604FF080430122C3F81825704700BF8C
:1083E40000E100E04FF080430122DA60D3F8182462
:1083F400D203FBD4704700004FF0804307B5D3F895
:1084040000217AB10022C3F80021D3F800210092A0
:10841400009A0122C3F808230F4B587910B95A71F6
:108424001B6898474FF08043D3F8042182B100229F
:10843400C3F80421D3F804210192019A0222C3F85B
:108444000823054B1B68012003B05DF804EB1847B3
:1084540003B05DF804FB00BFBC20002000F18040A5
:1084640000F5C040002382B0036003680193019BC0
:1084740002B07047800000F1A040D0F8002722F439
:108484004032C0F80027D0F8003743EA0141C0F871
:1084940000177047C208012300F0070003FA00F038
:1084A4008B5C184388547047054B4FF0FF32072804
:1084B40043F8202084BFC01880F84820704700BFCC
:1084C400C420002038B5144D95F858400CBB202228
:1084D400FF2105F1300002F01DF8E0B20134FFF78E
:1084E400E3FF0C2CF9D10D4B0022C0216A6583F8FF
:1084F4000613402119604FF4BE70FFF7AFFF084B1D
:108504004FF00041C3F80413012385F85830104696
:1085140038BD0820FCE700BFC420002000E100E0D3
:1085240000600040034B93F85800003818BF012046
:10853400704700BFC42000202DE9F041DFF8E4803B
:1085440008EB0003054693F93030002B0F4664DA3C
:108554008B78C3F34003002B0BBF082400240C21A9
:1085640008218C4202D10420BDE8F08158F824008F
:1085740001303DD108EB050166B248F8242081F8AA
:1085840030601BB908EB040383F84850BB785A07E2
:108594000ED4D9072ED5AB0003F1A043D3F800279E
:1085A40022F00202C3F800271D492846FFF772FF94
:1085B400BB783A7813F0020325D0A40004F1804478
:1085C40004F5C0442D02D4F8103523F4473323F4C2
:1085D4004073C4F810351204D4F8103505F4F85576
:1085E40002F4403215431D43C4F810550020BBE784
:1085F4000134B6E77A7805F5E0734FF0A0419200B4
:1086040041F82320D0E7083E48FA86F696F8505001
:1086140045EA821286F85020E8E70820A4E700BF64
:1086240018210020C420002038B5204C251895F9C5
:108634003020072A18DD083A44FA82F494F85030BE
:108644009B09032B0BD14FF0A043D3F81015C14065
:1086540001F001010231BDE83840FFF70BBF012BE7
:108664000CBF02210321F6E7D3B2072B1DD89300D8
:1086740003F1804303F5C043D3F8100540F0010033
:10868400C3F8100502F1400040B2800080B2FFF749
:10869400E5FE51B195F9303054F823302BB1012364
:1086A40003FA02F2024BC3F8042338BDC4200020AD
:1086B400006000404FF0A043D3F8103523FA00F0D7
:1086C40000F00100704700002DE9F04F87B000244E
:1086D400584D03944FF48072012102F1804303F555
:1086E400C04390B21B68012B06D1D5F804330B426A
:1086F40002D0FFF7B3FE0C430432B2F5907F4FEA89
:108704004101EAD14B4BD3F87C31012B0AD14FF410
:10871400BE70FFF7A3FE4FF0A04344F00044D3F82B
:1087240010350393E3B2D3B1434F002501263442FD
:1087340010D0AB0003F1804303F5C043D3F8100518
:10874400D3F8101557F8253023B1C1F30141C0F314
:10875400042098470135082D4FEA4606E7D1002C3E
:1087640061DA00224FF0FF33CDE90423DFF8C8803B
:10877400DFF8C89000273E464FF0A04B19F9014B93
:10878400631C45D0C4F3C2030122E5B204F03F00E8
:1087940004F0070402FA04F406AA134413F8042CA0
:1087A400224235D008EB0002AD0992F9302058F886
:1087B40022A0BAF1000F09D1032D29D104A90193F4
:1087C4000090FFF767FEDDE9000301E0032DF5D01B
:1087D40000F5E07113F80C3C5BF821102342C1F35F
:1087E400014105D0022913D1032D0CD1294604E0FF
:1087F40003290DD1032D06D1022100900136FFF784
:1088040039FE0098F6B2BAF1000F01D02946D047DC
:108814000137042FB2D136B14FF0A043039AD3F8F5
:108824001035934202D107B0BDE8F08F0393049B47
:1088340005939DE700600040C4200020142100201F
:10884400014B1B68184700BF202100200E4B9842A3
:1088540037B50C4602D0002003B030BD00230DF123
:1088640007008DF80730FEF7DDFE084B1D7915B9BA
:1088740001221C601A719DF80700FEF7F7FE002D17
:10888400E9D01120E8E700BF0020004020210020AB
:10889400034B984201BF034B00221A601A717047C0
:1088A40000200040202100200023435082B0435880
:1088B4000193019B02B070470A4610B54FF48E71C4
:1088C400FFF7F2FF136A9168C95C136A01331362FC
:1088D400C0F81C1510BD8B690A4610B54FF484719D
:1088E40023B9FFF7E1FFD0F8183510BDFFF7DCFF1F
:1088F400536AD168D0F81805C854536A01335362D7
:10890400F3E700001FB501238DF80030044BCDE9D7
:108914000110D3E900126846904705B05DF804FBE6
:108924002821002030B54D4DD5F804339A0585B083
:1089340051D5D5F82431002B4DD04FF492712846EF
:10894400FFF7B2FF4FF40173C5F80833444B93F8B3
:1089540029200AB901226A60404902228DF80020C8
:10896400D1F88024C1F8802403929A690292DA68CB
:1089740001920022C3E906226846D3E90012904717
:108984003648D0F81C315BB1354A116A53699942B3
:108994004DD292F82830002B49D11146FFF78CFFB5
:1089A4002E48D0F84431002B55D04FF4A271FFF774
:1089B4007BFF2B4B93F829200AB1012202609A69AC
:1089C400002A48D0586AD96800229A6105B0BDE8E7
:1089D4003040FFF797BFD5F804335B07D0D5D5F8FF
:1089E4000831002BCCD01E4C1C482146FFF773FFE6
:1089F400636AA2699A42C3D1E369E1684BB1A36196
:108A04002369E3600023606AE3616362FFF77AFF2E
:108A1400B6E794F829300BB901236B600F4B4FF480
:108A24000172C3F808230023606AA361EEE74FF4E0
:108A34008E710A48FFF738FF51690029B0D000232E
:108A4400029191688DF80030019153616846D2E932
:108A540000139847A4E705B030BD00BF00200040D4
:108A6400282100202DE9F843564D90F804802C234A
:108A740003FB0853064693F82A300C469146002B14
:108A840040F09B8050490068FFF7E0FE074600284D
:108A940040F0958022683068511C0BD04FF0A04103
:108AA40001239340C1F8083502F5E0734FF0030C3D
:108AB40041F823C061684B1C1FBF01F5E0734FF000
:108AC400A04C4FF0000E4CF823E0A369C0F8243505
:108AD40094F814C0637DBCF1010F4CEA0303C0F8A1
:108AE4006C35C0F81415C0F80C251DD1A268531CB0
:108AF4001FBF02F5E0734FF0A0414FF0000C41F8A6
:108B040023C0E368591C0BD04FF0A04C01219940BD
:108B1400CCF8081503F5E0714FF0030E4CF821E092
:108B2400C0F80835C0F810252C2202FB08F2AB1857
:108B3400C3F804902369AB50B9F1000F2AD04FF465
:108B44008E71247FFFF7B0FE30684FF4A271FFF7F7
:108B5400ABFE32681D4BC2F80433130B42F30732E9
:108B6400002AA8BF02F160404FEA4411BABF184876
:108B740003F00F0400F56140C9B2B4BF015580F899
:108B8400001303F01F03012101FA03F352091149F1
:108B940041F8223033680422C3F800252C2303FB58
:108BA40008530022C3E9062283F829205A610122CE
:108BB40083F82A203846BDE8F8830827FAE7112706
:108BC400F8E700BF28210020298902008000020064
:108BD40014ED00E000E100E0F8B5057900682C4CE4
:108BE4000023C0F800352C2303FB05435B686BB1FD
:108BF400284BC0F8083340F30733C0F304315B0952
:108C040001228A402033244941F82320D0F80C65FE
:108C1400D0F81415D0F80835D0F810254FF0FF37E8
:108C2400BE42C0F8147518BF06F5E076C0F80C759E
:108C3400C0F80875C0F810751EBF4FF0A0474FF07C
:108C4400020C47F826C04E1C1FBF4FF0A04601F58A
:108C5400E071022746F82170511C1FBF4FF0A0415C
:108C640002F5E072022641F822605A1C1FBF03F588
:108C7400E0734FF0A042022142F82310FFF708FEF0
:108C84002C2303FB0544002384F82A306360F8BDD9
:108C9400282100208402020000E100E00279044B54
:108CA4002C2101FB02335869003818BF012070479A
:108CB400282100202DE9F84F064689469246FFF701
:108CC400EDFF044600283DD196F804801F4F2C2563
:108CD40008FB057B4FF48E71CBF82000CBF814A071
:108CE4008BF82800CBF808903068FFF7DDFD30687A
:108CF400012383605946FFF7DFFDDBF804305D464E
:108D040013BB30682A6A6B699A4211D33368D3F86B
:108D14001C21002AFBD00122DA6000202C2303FB53
:108D2400087700237B61BDE8F88F95F828303BB9BC
:108D3400D0F81C31002BF8D05946FFF7BDFDE1E710
:108D44000F20EBE71120EEE72046ECE72821002076
:108D54000023435082B043580193019B02B07047F3
:108D64001FB501238DF80030044BCDE90110D3E980
:108D740000126846904705B05DF804FB54210020BA
:108D84007FB5364AD2F82461002E46D010464FF4FF
:108D94009271FFF7DDFF02238DF80030D2F88034A2
:108DA400C2F880340393D2F83C3502932C4BDA6832
:108DB40001920022C3E906226846D3E900129047D3
:108DC4002648D0F8443173B14FF4A271FFF7C0FFC5
:108DD400234B9A693AB10022C3E90622D968D0F834
:108DE4003C05FFF7BDFF1D48D0F820319BB14FF47F
:108DF4009071FFF7ADFF1A4B5A6962B1D0F84C1568
:108E04000291002299688DF8002001915A61684608
:108E1400D3E90012904704B070BDD2F81031002B92
:108E2400CED04FF488711046FFF792FF0C4BD2F866
:108E34003C0599698842C3D1DC69D96864B1D2F828
:108E4400005225F02005C2F800521A699C61DA60CC
:108E5400DE61FFF785FFB3E79C61FAE7002000407D
:108E6400542100202DE9F8435A4E90F8048024231D
:108E740003FB0863054693F820300C469146002B0B
:108E840040F0A38054490068FFF7E0FC074600283F
:108E940040F09D8022682868511C0BD04FF0A041FF
:108EA40001239340C1F8083502F5E0734FF0030C39
:108EB40041F823C061684B1C1FBF01F5E0734FF0FC
:108EC400A04C4FF0000E4CF823E0A369C0F8243501
:108ED40094F814C0637DBCF1010F4CEA0303C0F89D
:108EE4006C35C0F80C25C0F814151DD1A268531CAC
:108EF4001FBF02F5E0734FF0A0414FF0000C41F8A2
:108F040023C0E368591C0BD04FF0A04C01219940B9
:108F1400CCF8081503F5E0714FF0030E4CF821E08E
:108F2400C0F80835C0F81025242202FB08F2B31853
:108F3400C3F804902369B350B9F1000F34D04FF44F
:108F44008871227FFFF704FF28684FF49071FFF7C0
:108F5400FFFE28684FF49271FFF7FAFE28684FF479
:108F6400A271FFF7F5FE2B681C49C3F80413190B13
:108F740043F30733002BAEBF03F1604001F00F044D
:108F840017484FEA4212A8BF00F56140D2B2B4BFFD
:108F9400025580F8002301F01F01012202FA01F1B9
:108FA4005B09104A42F823102B680822C3F80025F5
:108FB400242303FB08660023C6E9063373610123F7
:108FC40086F820303846BDE8F8830827FAE71127E9
:108FD400F8E700BF54210020858D02001003020031
:108FE40014ED00E000E100E0F8B5057900682C4CD0
:108FF4000023C0F80035242303FB05435B686BB1F1
:10900400284BC0F8083340F30733C0F304315B093D
:1090140001228A402033244941F82320D0F80C65EA
:10902400D0F81415D0F80835D0F810254FF0FF37D4
:10903400BE42C0F80C7518BF06F5E076C0F814758A
:10904400C0F80875C0F810751EBF4FF0A0474FF068
:10905400020C47F826C04E1C1FBF4FF0A04601F576
:10906400E071022746F82170511C1FBF4FF0A04148
:1090740002F5E072022641F822605A1C1FBF03F574
:10908400E0734FF0A042022142F82310FFF700FCE6
:10909400242303FB0544002384F820306360F8BDD7
:1090A400542100201003020000E100E00279044B87
:1090B400242101FB02335869003818BF012070478E
:1090C4005421002001F06043B3F1005F2DE9F04723
:1090D40006468846924635D190F80490FFF7E6FF9D
:1090E400044688BB1A4F3068242505FB09754FF4E4
:1090F4009071C5F814A0C5F80880FFF729FE4FF455
:10910400AC713068FFF724FE33686A69A968C3F854
:109114004415C3F8482501229A606A68B2B9D3F8A5
:109124002021D3F858014AB90028F8D00F2024236D
:1091340003FB097700237B61BDE8F087002818BF93
:109144000F20F4E71020F7E71120F5E72046F3E7B6
:10915400542100200220FEF7E3BF00002DE9F04770
:1091640080460D46FEF7EEFF0328044610D8012D75
:1091740010D0022D30D05DB91A48FEF743FA1A4BCD
:1091840004EB440213449D78184B1B5DAB4219D089
:10919400BDE8F087144E00EB4003F218F55C5378F9
:1091A400470053B1DFF84C900E484A464FF4004153
:1091B400FEF7E0F908B989F8008027443E440B4BD8
:1091C400B2781A55002DE3D0094B1B68002BDFD071
:1091D4002846BDE8F047184700EB40040248044421
:1091E4006578EFE79C210020DC210020F521002098
:1091F400F02100207821002000780221FFF7AEBF83
:1092040008B5094B1B7853B10020FEF75FFF01201E
:10921400FEF75CFFBDE808400320FEF757BFBDE83A
:109224000840FEF75FBF00BF79210020F8B57A4CF3
:10923400237805461BB100232370FFF7E1FF172DA8
:1092440000F28780DFE805F00C1717425364757F3E
:10925400878C878C949999999999C3C8D0D8E3E35A
:10926400FFF7CEFF6D48FEF7CDF96D4B00220446A3
:109274001A702046F8BD0020FEF70EFFF0B1002062
:10928400FEF724FF022D0CBF4FF4E1644FF47A641F
:10929400634B1D7000254FF400464FF4FA702946C5
:1092A4004FF47A720023E4FB060101F045F82A46E4
:1092B4000146BDE8F8405948FEF75CB9FEF7FAFEEE
:1092C400022D0CBFC8244FF4C874E1E70020FEF758
:1092D400E3FE40B10020FEF7F9FE4FF44874504B12
:1092E40003221A70D6E7FEF7E5FEC824F7E700204C
:1092F400FEF7D2FE38B10020FEF7E8FE4FF47A64A0
:10930400474B0422EDE7FEF7D5FE4FF4C874F7E7A8
:109314000020FEF7C1FE48B10020FEF7D7FE404B07
:1093240005221A7041F69A110022C2E7FEF7C2FE26
:10933400F5E70020FEF7F4FE394B06221A700022EE
:1093440040F6CD41B5E70020FEF7B4FE344B0722CA
:109354001A7000248DE701202070FEF7E1FEEEE78D
:1093640001202070FEF7DCFE00224FF48041A0E7CC
:10937400FEF7C7FE2A4B0C22EAE72A482A4EFEF7DC
:1093840041F9D5F1110504461CD0D8B9012D13D0EB
:10939400C820454321464FF400474FF4FA704FF478
:1093A4007A720023C5FB070100F0C6FF224601467E
:1093B4001C48FEF7DFF804460220FEF77BFE01237B
:1093C400337056E70220FEF781FE0023F8E7FFF72B
:1093D40017FF134B1222BBE7FFF712FF0020FEF723
:1093E40069FE0F4B1322B3E7FFF70AFF0120FEF7D4
:1093F40061FE0B4B1422ABE7FFF702FF0020FEF7E0
:1094040059FE0120FEF756FE054B1522A0E7FEF794
:1094140078FE034B1D709CE7EC210020BC2100204A
:10942400F42100207C21002079210020044B1B68BA
:10943400DB0703D5034B1878FFF7F8BE704700BF6E
:10944400E8210020F421002038B51C4B18601C4B87
:1094540010F00204054619601AD01A4B1A480E225D
:109464001A700F22DA7010229A7111225A72042192
:1094740040F26662FDF77AFD044648B9FDF7CCFD7B
:10948400044628B90146114A1148FEF761F804461A
:10949400EB0711D50120FEF767FE6CB921460D4A92
:1094A4000D48FEF755F8044630B9BDE838400B4A7C
:1094B4000B480121FEF74CB8204638BDE8210020B6
:1094C400F0210020DC2100208CAD0200FD9102007F
:1094D400B0AD020031940200B4AD02005991020013
:1094E400ACAD020072DF704700B54FF4004193B099
:1094F4000020FDF75BF908B1FDF7A4FDFDF77EF848
:10950400FDF7F6FF08B1FDF79DFD00210120FFF7EF
:109514009BFF08B1FDF796FDFEF7DAFB08B1FDF7F6
:1095240091FD00F075FD08B1FDF78CFD002303A942
:109534000120039300F0F8FD08B1FDF783FD03A8B3
:1095440000F08CFE08B1FDF77DFD5923ADF8003025
:109554001A4B02933C221723002103A8ADF80430D0
:1095640000F0D8FF04238DF80F30154BCDF830D020
:1095740018220021184600F0CDFF05220270A02217
:109584008260104A03A852F8041B00F02DFB08B1B6
:10959400FDF758FD0A4A0B490B48FFF7A3FF08B132
:1095A400FDF750FD0949002000F096FAFDF758F93F
:1095B4000028FBD1FEF7A2FBF8E700BFE11800206A
:1095C400FC210020D0180020E0180020B8AD0200D3
:1095D4000369C26893429CBF80681B18013B981AB8
:1095E40070472DE9F843D0E902940546A9EB040835
:1095F4004068904520440F46144404D900F061FFAC
:10960400EC60BDE8F8834246A4EB090400F059FF7E
:109614006868224607EB0801F0E72DE9F843C568BE
:109624000646894617464FF000083469B3687068E7
:10963400A54228BFE418013C621B5C1BBC4228BF46
:109644003C46944228BF144649462844224600F02A
:1096540038FFB3682544AB4208BF00253F1BA04434
:10966400A144F560E1D14046BDE8F88310B5114C42
:10967400114AA2610223C4E90433104BE361A264DA
:109684004FF400730E4A0F492362E2640023102250
:10969400E01DA3626362E362A3656365E36522651B
:1096A40000F06BFF0849204600F067FF2023A371F8
:1096B40010BD00BF34220020DBAD0200BC2200201C
:1096C400AC220020E4AD0200E8AD020070B5164BF8
:1096D400182400FB04451D4404FB00331646DC6AD1
:1096E400012C0ED0022C18D0E4B92846FFF770FFE5
:1096F400864204D832462846FFF773FF3446204694
:1097040070BD2846FFF764FF8642344628BF0446EE
:1097140022462846FFF765FFF1E72846BDE870407A
:10972400FFF77BBF0024EAE73422002073B50E4B19
:109734001B7804460D4616460BB9FFF797FF002326
:109744000DF107008DF80730FDF76CFF324629460E
:109754002046FFF7BBFF04469DF80700FDF786FF90
:10976400204602B070BD00BF34220020FFF77EBF48
:10977400826810B504464068531C834205D82068AB
:109784008154A360E3680133E360D4E901329A426F
:109794000BD121682069FFF7C9FFA368984215BF60
:1097A4004FF0FF330023E360A36010BD2DE9F84FB1
:1097B4009946DDE90A431646054688460A464FF0AF
:1097C400010AB24212D2CA4538BFCA4613F0010B8D
:1097D40001D184B90024EB68002B48DB0127B9F1DF
:1097E400010F1FD909F1FF397743F8E70AF1010A9C
:1097F400B2FBF6F2E5E79B0712D5B9F1000F0CBFF7
:1098040030272027A245E6D239462846FFF7B0FF85
:10981400EB68002B04F1FF34DDDB002CF2D1D9E737
:109824002027EFE7B8FBF7F39E42DDD9DFF8489035
:10983400B8FBF7F3284619F8031007FB1388FFF762
:1098440097FFEB68002B03DBB7FBF6F3B74210D2AC
:10985400BBF1000F0BD054B1A24508D220212846F9
:10986400FFF786FFEB68002B04F1FF34F3DABDE861
:10987400F88F1F46DCE700BFEFAD02002DE9F04F83
:109884009BB00AAB0E46059340210023CDE9061395
:10989400CDE90830039015464FF00A0A16F8011B6B
:1098A40039B9089B002B00F30B8108981BB0BDE865
:1098B400F08F252940F0B5804FF0000B07E0302BE6
:1098C4000FD14BF0020B01E04BF0010B0E46314679
:1098D40011F8013B2D2BF7D0F1D8232B11D02B2BD2
:1098E4000CD00024314611F8013BA3F130000928C3
:1098F4000AD80AFB0434303C0E46F3E74BF0040B61
:10990400E4E74BF0080BE1E72E2B0FD10E464FF0A6
:109914000009304610F8011BA1F13007092F07D8C0
:109924000AFB0913A3F130090646F2E74FF00009D8
:10993400304610F8011B01F0FB07682F0646F8D0EB
:10994400782909D86F290BD8632966D020D825290E
:1099540067D0582900F09480089B002B9EDAA0E77A
:1099640070390829F8D801A353F821F0B59A0200F8
:109974005D9902005D990200959A02005D990200CA
:10998400739A02005D9902005D990200859A0200B3
:109994006429E1D129680F68081D87EAE771286006
:1099A400A1EBE7714FF0010809293EDCC84538BF37
:1099B400C8462CB1002F02DB1BF0040F00D0013C81
:1099C4001BF0020F02D0B9F1000F04D01BF0010FFD
:1099D40001D17CBB002408990029BDDB002F35DAB6
:1099E4007F422D2105A8FFF7C3FE08990029B3DBA8
:1099F4000BF00301022904D1B9F1000F01D154BBCA
:109A0400002408990029A7DBCDE9004B4B460A2224
:109A1400394605A8FFF7CAFE9EE72B681A1D197878
:109A24002A6005A8FFF7A4FE96E708F10108B1FB38
:109A3400FAF1B9E7A045CED2202105A8FFF798FE98
:109A44000899002904F1FF34C3DAC4E71BF0040FBA
:109A5400CBD02B21C6E7A045D3D2302105A8FFF7F0
:109A640087FE0899002904F1FF34C8DAC9E7296898
:109A7400CDE9004B081D28604B460A220968C8E757
:109A84002968CDE9004B081D28604B461022F5E7F4
:109A94002B681A1D2A601C6814F8011B00293FF466
:109AA4005BAF05A8FFF764FE089B002BF4DA53E7CD
:109AB40029680B1D2B6000220823CDE90032E5E75D
:109AC400079A1AB103980AA9FFF730FEDDE90723C4
:109AD40013440893E9E600BF0EB403B503AB01AA2F
:109AE40053F8041B0193FFF7C9FE02B05DF804EBC1
:109AF40003B070476DDF704779DF70477DDF7047D3
:109B040064DF70472DE9F04F85B000250E9CBDF849
:109B14003CB0B4F800A00191074690461E46A94601
:109B24003A884A450DDC45B12388013BA3EB0A037F
:109B34009BB2FF2B3AD806F80A30002005B0BDE8E6
:109B4400F08F7A6852F82900039000220DF10B017E
:109B540003A8FFF7D5FF0028F0D19DF80B2042455C
:109B640021D12288002D14BF0020022002EB08011D
:109B7400014459451ADC3DB9013292B2019B22805D
:109B8400B35422880132228022880DF10B01324421
:109B940003A8FFF7B5FF0028D0D121889DF80B203A
:109BA4000A442280012509F10109B9E70C20C5E71F
:109BB4002DE9F341089FBDF824801546CDE90078CE
:109BC400022204461E46FFF79DFF50B93346102279
:109BD40029462046CDE9087802B0BDE8F041FFF7F8
:109BE40091BF02B0BDE8F0812DE9F04F0023178842
:109BF400138090F82D3085B006460D4614465BB3AD
:109C0400082F01D80C2028E102A8FFF773FF0028D1
:109C140040F023812388DDF809100822EA542388C0
:109C240001339BB21B222380EA54238801339BB265
:109C3400EA182380E950BDF80D30938023889DF8FD
:109C4400082006339BB212F0FE0218BF01222380C3
:109C5400EA54238801332380B378FBB12388043387
:109C6400BB42CFD802A8FFF747FF002840F0F58099
:109C740023880322EA54238801339BB219222380C8
:109C8400EA542388BDF8082001339BB2E9182380E5
:109C9400EA54120A4A70238802332380F2789AB174
:109CA4002388D91CB942ADD80221E9542388013351
:109CB4009BB201212380E95423880B449BB2238067
:109CC400EA5423880B4423807268AAB12388D91CE0
:109CD400B94297D8022192F90020E954238801332C
:109CE4009BB20A212380E954238801339BB2238049
:109CF400EA542388013323803389002B40F0A18068
:109D0400338A5BB1CDE900472B460722032106F1D4
:109D14001000FFF74DFF002840F09F80338B5BB1AC
:109D2400CDE900472B461522142106F11800FFF750
:109D34003FFF002840F09180326A002A40F0908072
:109D4400D6F82480B8F1000F30D0B8F80430218858
:109D5400981C8A1C0244BA423FF654AFFE283FF6D0
:109D640051AF03336B54238801339BB2FF2223800A
:109D7400EA54238801339BB22380B8F80020EA54C4
:109D8400E918120A4A702088023080B22080B8F89C
:109D940004205AB1D8F8081000296BD0284400F0E8
:109DA40090FB2388B8F804201344238096F82C30C1
:109DB400002B40F09880307800284ED03388012B57
:109DC40058D0228802F1020CBC453FF61BAF012893
:109DD40005D17378023313449F42FFF413AF023F5B
:109DE400BF1ABFB202A905EB0C00ADF80870FFF76B
:109DF40085FE90BB3178BDF80830022900F0B980A7
:109E040072789A4202D39F4280F0B180012940F0D7
:109E1400B280974293B2C0F0AE80ADF8083008210A
:109E2400BDF80830FE2B3FF6EDAE22880133AB546B
:109E34002288013292B22280A954228813442380BA
:109E44000BE0CDE900472B460622022106F108006B
:109E5400FFF7AEFE00283FF453AF05B0BDE8F08F26
:109E6400B4F800C00CF10603BB423FF6CBAE118838
:109E7400052901D80720F0E76FF4486E01EB0E03C3
:109E84009BB24FF27D3E7345F4D95388052BF1D92B
:109E94006FF44860181880B27045EBD94FF6FF7024
:109EA400814201D09942E5D8052305F80C30238876
:109EB40001339BB212212380E954238801339BB2DE
:109EC40023801188E954E818090A41702388023371
:109ED4009BB223805288EA54E918120A4A702388F4
:109EE400023323802CE7B36A002BC3D04FF0000861
:109EF4004FF00C0A4FF0160BB16A5FFA88F20AFBB6
:109F040002F201EB0209B9F80430981CFE283FF66E
:109F140079AE208803332B54238801339BB22380EA
:109F240005F803B0238801339BB223808A5AEA548C
:109F3400E918120A4A702088023080B22080B9F8E9
:109F440004205AB1D9F80810002993D0284400F00D
:109F5400B8FA2388B9F804201344238096F82C20F7
:109F640008F101085FFA88F39A42C5D823E709216A
:109F740056E79F42FBD2ADF8087050E710DF7047F8
:109F840013B5044609496846FDF7E9FE019808B986
:109F940002B010BDD0E900212046904718B16846B0
:109FA400FDF7E7FEF2E71120F2E700BF0CAE020076
:109FB40013B5044607496846FDF7D1FE019B0BB96A
:109FC40002B010BD2046D3E9002190476846FDF752
:109FD400D0FEF3E724AE02000B4991F816335A0978
:109FE400EC231341DB0706D5084B9A683AB94FF4C2
:109FF40080030B60704742F20200FDF723B81A6831
:10A0040042F480021A60704700E100E080200020E2
:10A01400F7B5194F3C7864BB184E012520463570BE
:10A02400FFF7AEFF112821D02046FFF7C1FF144BE4
:10A034008DF80340186801900DF10300FDF7F2FA62
:10A04400104901A8FFF79AFF0446B0FA80F04009CE
:10A0540038709DF80300FDF709FB3CB90A4B3470D6
:10A064001C70FFF7B9FF2846FFF7A2FF204603B094
:10A07400F0BD0824FAE700BFBD240020BC24002062
:10A0840007AE020065700200BE240020014B187860
:10A09400704700BFBD24002007B508496846FDF796
:10A0A4005EFE019B13B903B05DF804FBD3E9002005
:10A0B40090476846FDF75DFEF3E700BF18AE020067
:10A0C400FFF7EABF60DF704769DF704761DF704701
:10A0D40030B5134B1B7891B0FBB1124D34240DF104
:10A0E400020103A8ADF80240FFF7F0FF70B929465A
:10A0F40001A8FDF734FE029B002BF0D003A8D3E99E
:10A104000021904701A8FDF734FEF4E7052804D0A8
:10A1140011B0BDE83040FCF795BF11B030BD00BFB1
:10A12400BF24002068B0020030B50C4685B0002979
:10A1340000F082800023CDE90133404A03930123D8
:10A144000A608DF804008DF8063001A9062320204A
:10A15400ADF80830FFF7B8FF60B1FDF735FE384BB6
:10A164003849024638481B1ADB081B0443F0010037
:10A17400FCF7DCFC00232268039301A94020CDE90D
:10A184000133FFF7A1FF60B1FDF71EFE2C4B2F49F1
:10A1940002462D481B1ADB081B0443F00100FCF7A0
:10A1A400C5FC00232268039301A90120CDE90133F2
:10A1B400FFF78AFF60B1FDF707FE214B24490246F1
:10A1C40021481B1ADB081B0443F00100FCF7AEFC1A
:10A1D4000023CDE902332268F82301A9A1200193C9
:10A1E400FFF772FF60B1FDF7EFFD154B1949024609
:10A1F40015481B1ADB081B0443F00100FCF796FC0E
:10A2040000252268039501A9A020CDE90155FFF797
:10A214005BFF034668B1FDF7D7FD094B0E490246C3
:10A2240009481B1ADB081B0443F00100FCF77EFC01
:10A234002B46184605B030BD0E23FAE7A8180020B7
:10A2440098A6020030AE020058A6020076AE0200C4
:10A25400C2AE02000EAF02005FAF020073B5054646
:10A264000668FFF72FFF2B68B34204461DD91A482E
:10A274001A4B1B491B1ADB081B0443F00200019014
:10A28400FCF750FC2B68174901983246FCF757FC41
:10A294004FF080532A68D3F80C31134901989B027C
:10A2A40003F100539A1AFCF741FC2CB90F4B01221D
:10A2B4001A70204602B070BD2046FDF785FD074B9D
:10A2C4000B49024604481B1ADB081B0443F0010037
:10A2D400FCF72CFCEDE700BF58A6020098A602008C
:10A2E400B2AF0200E1AF020012B00200BF240020AE
:10A2F4003CB002004BDF70471FB50E4C01A8FFF7BE
:10A30400F9FF70B9214602A8FDF729FD039B002B34
:10A31400F4D00198D3E90021904702A8FDF729FD64
:10A32400F4E7052804D004B0BDE81040FCF78ABE69
:10A3340004B010BD80B0020053EA020C61D02DE9D4
:10A34400F04BB3FA83F51E0007BFB2FA82F502FAA6
:10A3540005F403FA05F41646C5F120051EBF22FADA
:10A3640005F73C43203556EA044C4FEA144418BF21
:10A374000134A3464FF00009C846904271EB030C28
:10A3840039D3094207BFB0FA80F700FA07F6B1FAE9
:10A3940081F701FA07F6C7F120071EBF20FA07FC70
:10A3A40046EA0C062037B6FBFBFC7F1B103F07F088
:10A3B4001F04C4F120060CFA04F42CFA06F644BF78
:10A3C40034460026202FA4BF2646002454EA060C57
:10A3D40008BF012418EB040849EB0609A4FB027C1E
:10A3E400C01B06FB02CC04FB03CC71EB0C019042B6
:10A3F40071EB030CC5D20B46024649464046BDE804
:10A40400F08BB2FBF3F200007F2805D8034B185CF5
:10A41400034B5B5C184070470020704798B0020003
:10A4240018B10200A0F16103192B98BF20387047BE
:10A43400A0F14103192B98BF203070477F2805D81D
:10A44400034B185C034B5B5C18407047002070475B
:10A4540098B0020018B10200A0F16103192B98BF53
:10A4640020387047A0F14103192B98BF2030704762
:10A474007F299ABF017001206FF02E0070475AB1F6
:10A484000A787F2A0AD800B1026000211960596055
:10A49400501A18BF01207047002070476FF02E003B
:10A4A4007047000008B5034B5B689B681B689847BE
:10A4B40008BD00BFF818002008B50921FFF7F2FF16
:10A4C40008BD844640EA010313F0030F18D1844603
:10A4D400202A0BD32DE9F007B1E8F807A0E8F80724
:10A4E400A2F12002202AF7D2BDE8F007042A07D3FC
:10A4F40051F8043B40F8043BA2F10402042AF7D2C9
:10A50400002A05D011F8013B00F8013B013AF9D1CA
:10A51400604670478446002A2DD010F0030F04D003
:10A5240000F8011B013A26D0F7E7C9B241EA01213C
:10A5340041EA0141202A12D3A2F120022DE9F003BD
:10A544000B460C460D460E460F4688468946A0E843
:10A55400FA03203AFBD2BDE8F00320320BD0042AE0
:10A5640005D340F8041B043A05D0042AF9D200F8B4
:10A57400011B013AFBD160467047024610F0030FFD
:10A5840016D111F0030F13D12DE9F0004FF001376C
:10A594004FF0803351F8044BA4EB070525EA04057A
:10A5A4001D4002D142F8044BF4E7A1F10401F0BCD0
:10A5B40011F8013B02F8013B002BF9D1704700F17F
:10A5C400010110F0030F11D010F8012B002A23D041
:10A5D40010F0030F0AD010F8012B002A1CD010F041
:10A5E400030F03D010F8012B002A15D02DE97000B9
:10A5F4004FF001324FF0803350F8044BA4EB0205C6
:10A6040025EA04051D4000D1F6E7A0F1040070BC62
:0EA6140010F8012B002AFBD1A0EB01007047CB
:08A62400ED81020000000000BE
:08A62C006D8202000000000035
:10A63400D5A0020000000000FDA2020000000000FE
:10A6440090190020581A0020601A00209819002040
:04A6540018000000EA
:10A658006EAD02000000000074AD020000000000B2
:10A668007BAD0200000000007FAD0200000000008A
:10A6780084AD02000000000042A7020000000303AE
:10A6880068AD020000000000FFAD020000000303F7
:10A6980059B002000000030374B002000000030375
:08A6A80056A8020000000000AA
:10A6B000D8A602000000000021A70200BC1800205C
:10A6C00004A702000000000010A70200C418002028
:10A6D0000338FDD870470000D963020045640200CA
:10A6E000D5630200FFFFFFFFFFFFFFFFFFFFFFFF3C
:10A6F000FFFFFFFF00000000000000000000D60187
:10A700000601000069650200CD65020019650200BE
:10A71000756172745F6C6F675F6261636B656E64B5
:10A72000007274745F6C6F675F6261636B656E6407
:10A73000004261636B656E647320666C7573686557
:10A740006400617070000000841E00207F00000023
:10A75000041F00201B5B313B33316D0025734C6FB0
:10A7600067732064726F70706564202825642925E2
:10A77000730D0A001B5B306D002573003C25733E92
:10A780002025733A20002025303278002020200038
:10A790007C002563001B5B313B33306D001B5B315C
:10A7A0003B33326D001B5B313B33336D001B5B3140
:10A7B0003B33346D001B5B313B33356D001B5B312C
:10A7C0003B33366D001B5B313B33376D0077617275
:10A7D0006E696E6700696E666F006465627567001A
:10A7E00074A7020095A7020054A702009DA70200CB
:10A7F000A5A70200ADA70200B5A70200BDA70200F1
:10A80000C5A702000000000022A80200CDA7020098
:10A81000D5A70200DAA70200241F00204661746158
:10A820006C206572726F720053797374656D20725B
:10A830006573657400000000000000000000000067
:10A840000338FDD870473031323334353637383934
:10A850004142434445467077725F6D676D740000F6
:10A860002CA602002CA60200040000004E52465FF7
:10A8700053554343455353004E52465F4552524F42
:10A88000525F5356435F48414E444C45525F4D49D9
:10A890005353494E47004E52465F4552524F525F06
:10A8A000534F46544445564943455F4E4F545F45C8
:10A8B0004E41424C4544004E52465F4552524F5223
:10A8C0005F494E5445524E414C004E52465F4552F0
:10A8D000524F525F4E4F5F4D454D004E52465F45C1
:10A8E00052524F525F4E4F545F464F554E44004EAA
:10A8F00052465F4552524F525F4E4F545F53555030
:10A90000504F52544544004E52465F4552524F52AA
:10A910005F494E56414C49445F504152414D004EB3
:10A9200052465F4552524F525F494E56414C494440
:10A930005F5354415445004E52465F4552524F5268
:10A940005F494E56414C49445F4C454E4754480080
:10A950004E52465F4552524F525F494E56414C4906
:10A96000445F464C414753004E52465F4552524F5A
:10A97000525F494E56414C49445F44415441004E58
:10A9800052465F4552524F525F444154415F5349D2
:10A990005A45004E52465F4552524F525F54494D00
:10A9A000454F5554004E52465F4552524F525F4EEE
:10A9B000554C4C004E52465F4552524F525F464FE7
:10A9C0005242494444454E004E52465F4552524F12
:10A9D000525F494E56414C49445F41444452004EF7
:10A9E00052465F4552524F525F42555359004E52A4
:10A9F000465F4552524F525F434F4E4E5F434F5555
:10AA00004E54004E52465F4552524F525F5245538C
:10AA10004F5552434553004E52465F4552524F5296
:10AA20005F4D4F44554C455F4E4F545F494E49541E
:10AA300049414C495A4544004E52465F4552524F97
:10AA4000525F4D555445585F494E49545F46414900
:10AA50004C4544004E52465F4552524F525F4D5551
:10AA60005445585F4C4F434B5F4641494C45440069
:10AA70004E52465F4552524F525F4D555445585FB6
:10AA8000554E4C4F434B5F4641494C4544004E5256
:10AA9000465F4552524F525F4D555445585F434FA4
:10AAA0004E445F494E49545F4641494C4544004E2F
:10AAB00052465F4552524F525F4D4F44554C455F91
:10AAC000414C52454144595F494E495449414C49D2
:10AAD0005A4544004E52465F4552524F525F5354BE
:10AAE0004F524147455F46554C4C004E52465F45DC
:10AAF00052524F525F4150495F4E4F545F494D5043
:10AB00004C454D454E544544004E52465F455252C9
:10AB10004F525F464541545552455F4E4F545F4535
:10AB20004E41424C4544004E52465F4552524F52B0
:10AB30005F494F5F50454E44494E47004E52465F75
:10AB40004552524F525F4452565F5457495F4552E7
:10AB5000525F4F56455252554E004E52465F455237
:10AB6000524F525F4452565F5457495F4552525FAD
:10AB7000414E41434B004E52465F4552524F525F49
:10AB80004452565F5457495F4552525F444E4143C9
:10AB90004B004E52465F4552524F525F424C455F0A
:10ABA000495053505F52585F504B545F5452554E6A
:10ABB0004341544544004E52465F4552524F525F06
:10ABC000424C455F495053505F4348414E4E454CBF
:10ABD0005F414C52454144595F45584953545300D5
:10ABE0004E52465F4552524F525F424C455F49506C
:10ABF00053505F4C494E4B5F444953434F4E4E4573
:10AC000043544544004E52465F4552524F525F42B4
:10AC10004C455F495053505F504545525F52454A3D
:10AC2000454354454400556E6B6E6F776E206572D8
:10AC3000726F7220636F6465000000000000000006
:10AC40006CA802000100000078A8020002000000C9
:10AC500096A8020003000000B7A80200040000004C
:10AC6000CAA8020005000000DBA8020006000000E0
:10AC7000EFA802000700000007A90200080000007A
:10AC80001FA902000900000037A902000A00000005
:10AC900050A902000B00000068A902000C0000008F
:10ACA0007FA902000D00000093A902000E00000021
:10ACB000A5A902000F000000B4A9020010000000C6
:10ACC000C8A9020011000000DFA902001200000064
:10ACD000EEA902001300000003AA02008000000099
:10ACE00017AA02008100000038AA020082000000BA
:10ACF00054AA02008300000070AA02008400000031
:10AD00008EAA020085000000AFAA020086000000A3
:10AD1000D4AA020090000000EBAA020091000000FB
:10AD200009AB02009200000027AB02000082000085
:10AD30003CAB0200018200005AAB0200028200001C
:10AD400076AB02000084000092AB02000184000098
:10AD5000B6AB020002840000E0AB020003840000F6
:10AD600005AC020011121314636C6F636B00434C4B
:10AD70004F434B004750494F5445005052530055E4
:10AD80004152540055415254450000000D0003004B
:10AD9000619102000E000300619102000F000300A8
:10ADA0006191020010000300619102007C210020EB
:10ADB0009C210020BC2100200A6170705F74696DC5
:10ADC0006572204C4544206578616D706C65207318
:10ADD0007461727465642E0A0A0A005465726D69A2
:10ADE0006E616C0052545400534547474552003041
:10ADF0003132333435363738394142434445466E73
:10AE000072665F7364680001000007002CA60200F0
:10AE10002CA602000800000034A6020044A602008E
:10AE2000080000002CA6020034A602000800000062
:10AE300073645F626C655F6366675F73657428291E
:10AE40002072657475726E6564202573207768655D
:10AE50006E20617474656D7074696E6720746F2004
:10AE600073657420424C455F434F4E4E5F434647E7
:10AE70005F4741502E0073645F626C655F63666775
:10AE80005F73657428292072657475726E6564201D
:10AE90002573207768656E20617474656D707469C0
:10AEA0006E6720746F2073657420424C455F474184
:10AEB000505F4346475F524F4C455F434F554E549A
:10AEC0002E0073645F626C655F6366675F736574B1
:10AED00028292072657475726E6564202573207749
:10AEE00068656E20617474656D7074696E67207436
:10AEF0006F2073657420424C455F434F4D4D4F4E5C
:10AF00005F4346475F56535F555549442E0073646F
:10AF10005F626C655F6366675F7365742829207282
:10AF2000657475726E6564202573207768656E2080
:10AF3000617474656D7074696E6720746F207365D9
:10AF40007420424C455F47415454535F4346475F2A
:10AF5000415454525F5441425F53495A452E007345
:10AF6000645F626C655F6366675F73657428292040
:10AF700072657475726E6564202573207768656EDE
:10AF800020617474656D7074696E6720746F2073CE
:10AF9000657420424C455F47415454535F434647D4
:10AFA0005F534552564943455F4348414E474544E8
:10AFB0002E00496E73756666696369656E7420520A
:10AFC000414D20616C6C6F636174656420666F72C3
:10AFD0002074686520536F66744465766963652ED6
:10AFE000004368616E6765207468652052414D209A
:10AFF0007374617274206C6F636174696F6E206624
:10B00000726F6D203078257820746F203078257825
:10B010002E004D6178696D756D2052414D20736928
:10B020007A6520666F72206170706C696361746903
:10B030006F6E20697320307825782E0073645F620C
:10B040006C655F656E61626C652829207265747538
:10B05000726E65642025732E006E72665F7364687D
:10B060005F626C65000000002CA602002CA60200A6
:10B07000080000006E72665F7364685F736F630040
:10B0800024A602002CA602000800000043000000D5
:10B09000504F53495800000020202020202020201D
:10B0A0002068282828282020202020202020202038
:10B0B00020202020202020204810101010101010D8
:10B0C00010101010101010108484848484848484E0
:10B0D00084841010101010101081818181818101F1
:10B0E0000101010101010101010101010101010150
:10B0F00001010110101010101082828282828202DF
:10B10000020202020202020202020202020202021F
:10B110000202021010101020000703200417020181
:10B1200008571040800000008CB0020090B102006F
:10B13000A4B2020053756E004D6F6E005475650029
:10B140005765640054687500467269005361740065
:10B15000000000004A616E00466562004D617200A9
:10B16000417072004D6179004A756E004A756C003D
:10B1700041756700536570004F6374004E6F760031
:10B180004465630000000000414D00504D00000088
:10B19000C8B20200C4B20200C4B20200C4B20200CB
:10B1A000C4B20200C4B20200C4B20200C4B20200BF
:10B1B000C4B20200C4B20200FFFFFFFFFFFFFFFFA7
:10B1C000FFFFFFFFFFFF000004B2020034B10200E6
:10B1D00040B2020054B1020088B10200E8B102009E
:10B1E00098B20200F4B10200256D2F25642F257955
:10B1F00000000000256120256220256520255420BF
:10B200002559000053756E646179004D6F6E64615D
:10B21000790054756573646179005765646E657370
:10B22000646179005468757273646179004672696B
:10B230006461790053617475726461790000000083
:10B240004A616E75617279004665627275617279E4
:10B25000004D6172636800417072696C004D6179E4
:10B26000004A756E65004A756C79004175677573A3
:10B27000740053657074656D626572004F63746F1E
:10B28000626572004E6F76656D626572004465633B
:10B29000656D62657200000025483A254D3A2553D8
:10B2A000000000000DA4020029A4020035A4020041
:10B2B00041A402005DA4020069A4020075A402007A
:0AB2C00083A40200000000002E002D
:10B2CC0000000000002000400000000000200040B2
:10B2DC000000000000000000FF0000000000000063
:10B2EC00FF0000000090D003142200201F0000007B
:10B2FC000000000000000000FF021501122334457D
:10B30C00566778899AABBCCDDEEFF001020304C31B
:10B31C0028B1020028B1020028B1020028B10200B5
:04B32C0028B1020042
:040000032000637501
:00000001FF
